S018000077656263616D5F6669726D77617265322E73726563AF
S21440000000020120692B4000312C4000312C40007A
S214400010312C4000312C4000312C400000000000C4
S214400020000000000000000000000000312C4000EE
S214400030312C400000000000312C4000312C4000A4
S214400040312C4000312C4000312C4000312C4000F7
S214400050312C4000312C4000312C40000000000084
S214400060312C4000312C400000000000510B400075
S214400070690B40000000000069254000312C40001C
S2144000800000000000000000312C4000312C4000F1
S214400090312C4000312C4000312C4000952340004C
S2144000A0312C4000312C40000000000000000000D1
S2144000B000000000312C4000312C4000312C400024
S2144000C0312C4000312C4000312C400010B5054CFE
S2144000D0237833B9044B13B10448AFF300800123AF
S2144000E0237010BDBC09002000000000D4934000DF
S2144000F00C4B43B10C480D4910B5AFF300800C488B
S214400100036823B910BD0A48036833B97047094BE2
S214400110002BF7D0BDE810401847064B002BF5D013
S214400120184700BF00000000D4934000C0090020DC
S214400130D49340000000000080B582B000AF7860E5
S2144001407B68072B31D801A252F823F0A901400062
S2144001506D014000750140007D0140008501400072
S2144001608D014000950140009F0140000020114B4A
S21440017098471AE001200F4B984716E000200E4B98
S214400180984712E010200C4B98470EE020200A4B70
S21440019098470AE03E210020084B984705E03E215C
S2144001A00120064B984700E000BF00BF0837BD4619
S2144001B080BD00BF010C40006D0C4000DD0C4000CF
S2144001C080B582B000AF78607B68072B26D801A246
S2144001D052F823F0F5014000F9014000F9014000D3
S2144001E00B0240000B0240000B0240000B02400096
S2144001F00B024000012312E00B4B98470346002BAE
S21440020014BF01230023DBB209E0084B984703469E
S214400210002B14BF01230023DBB200E00023184666
S2144002200837BD4680BD00BF390C4000550D400024
S21440023080B483B000AF78607B68072B25D801A2D6
S21440024052F823F0650240006B0240007102400005
S214400250770240007B0240007F024000830240005D
S214400260870240004FF4FA4310E04FF400430DE09D
S2144002704FF400430AE0084B08E0084B06E0084B02
S21440028004E0074B02E0064B00E0002318460C371C
S214400290BD4680BC704700BF00093D0000127A0092
S2144002A0001BB70080B582B000AF0346FB7100BFAD
S2144002B0FB791846054B9847034683F00103DBB2AB
S2144002C0002BF5D100BF0837BD4680BDC1014000B8
S2144002D080B586B000AFF8607A603B600B46FB7234
S2144002E0FB7A18460D4B984702467B68B2FBF3F301
S2144002F07B617B693A6802FB03F37B613B68013BA9
S2144003001A04074B13407A68D2B2134343F47C5224
S214400310FB681A6000BF1837BD4680BD31024000FA
S2144003200000FF0780B582B000AF786039603B6858
S214400330002B08D1094B9847094A7B681B6843F055
S2144003400053936205E0074B9847054A7B681B6855
S214400350D36200BF0837BD4680BD00BF6D0D40006C
S21440036000040E40ED0D400080B582B000AF7860CE
S2144003707B68002B03D1054B9847034602E0044BAD
S2144003809847034618460837BD4680BD850D400051
S214400390050E400080B582B000AF0346FB71FB7986
S2144003A0033B042B08D8FB791846064B9847FB7945
S2144003B01846054B984700E000BF00BF0837BD46CB
S2144003C080BD00BF39014000A502400080B582B024
S2144003D000AF786000BF7868044B98470346002B10
S2144003E0F9D0002318460837BD4680BD6903400053
S2144003F080B500AF0620044B9847024613469B0044
S21440040013449B00184680BD3102400080B500AFC3
S214400410024B984703465B08184680BDF1034000F0
S21440042090B583B000AF1148114B98470620114B4A
S2144004309847381D1423012206210F4CA0473B1D28
S214400440002118460D4B984700200D4B984710202A
S2144004500C4B98470C4B98470C4B9847034618460E
S214400460034B984700BF0C37BD4690BD000E27078C
S214400470D12D400095034000D102400025034000A6
S214400480CD034000810B4000392C40000D04400055
S21440049080B485B000AFF860B9607A607B68002BA6
S2144004A003D0FB68BA685A6602E0FB68BA681A6608
S2144004B000BF1437BD4680BC704780B485B000AFDF
S2144004C0F860B9607A60FB68BA68C3F884207B68D5
S2144004D05B004FF40042B2FBF3F3013BC3F30D0263
S2144004E0FB68C3F88C2000BF1437BD4680BC7047FD
S2144004F080B487B000AFF860B9607A60FB687A680D
S2144005005A64BB68B3F1C05F4AD0B3F1C05F08D845
S214400510B3F1006F16D0B3F1805F2CD0002B69D0BA
S21440052064E0B3F1205F65D0B3F1205F03D8B3F148
S214400530005F4AD05AE0B3F1405F5BD0B3F1605FF2
S21440054058D053E0FB681B6F7B61FB681A6F7B6873
S214400550D9437B690B401A40FB681A67FB685B6FA0
S2144005607B61FB685A6F7B68D9437B690B401A40B6
S214400570FB685A673AE0FB681B6F7B617A687B6969
S2144005801A43FB681A67FB685B6F7B61FB685A6FB0
S2144005907B68D9437B690B401A40FB685A6725E065
S2144005A0FB681B6F7B61FB681A6F7B68D9437B696E
S2144005B00B401A40FB681A67FB685B6F7B617A6882
S2144005C07B691A43FB685A6710E0FB681B6F7B61C8
S2144005D07A687B691A43FB681A67FB685B6F7B61C6
S2144005E07A687B691A43FB685A6700BFFB687A687B
S2144005F05A6000E000BF1C37BD4680BC7047000014
S21440060080B584B000AFF860B9607A60B968F868C1
S214400610194B98477B6803F001031A46B968F86897
S214400620164B98477B6803F00A03002B03D0FB6801
S214400630BA681A6202E0FB68BA685A627B6803F0DE
S2144006400203002B04D0FB68BA68C3F8802008E099
S2144006507B6803F00803002B03D0FB68BA68C3F836
S2144006608420FB68BA685A61FB68BA681A6000BFA3
S2144006701037BD4680BD00BF69074000910440006A
S21440068080B584B000AFF860B9607A603B60B96806
S214400690F868124B9847BA69B968F868104B98479B
S2144006A03B68002B03D0FB68BA681A6502E0FB681B
S2144006B0BA685A657B68002B03D0FB68BA681A6331
S2144006C002E0FB68BA685A63FB68BA681A61FB685E
S2144006D0BA681A6000BF1037BD4680BD6907400043
S2144006E09104400080B485B000AFF860B9607A608D
S2144006F07B6803F01003002B20D0FB68BA68C3F871
S214400700B0207B6803F02003002B04D0FB68BA6857
S214400710C3F8D42003E0FB68BA68C3F8D0207B68EF
S21440072003F04003002B04D0FB68BA68C3F8C0202F
S21440073008E0FB68BA68C3F8C42003E0FB68BA6800
S214400740C3F8B42000BF1437BD4680BC704780B4A1
S21440075083B000AF786039607B683A681A6400BF3F
S2144007600C37BD4680BC704780B483B000AF78601D
S21440077039607B683A685A6400BF0C37BD4680BC17
S214400780704780B483B000AF78607B68DB6C1846F7
S2144007900C37BD4680BC704780B483B000AF7860ED
S2144007A07B689B6C18460C37BD4680BC7047000083
S2144007B090B587B002AF786039607868634B9847E9
S2144007C0F8603B6803F0F043B3F1005F67D0B3F1E5
S2144007D0005F09D8B3F1805F2BD0B3F1C05F43D040
S2144007E0B3F1006F0AD0A9E0B3F1405F7ED0B3F119
S2144007F0605F7BD0B3F1205F6CD09FE07B6803F0F6
S2144008001F03012202FA03F31A464FF00061F8680C
S2144008104F4B98477B6803F01F03012202FA03F30D
S21440082019463B6803F001031A46F868494B984757
S21440083086E07B6803F01F03012202FA03F31A46A0
S2144008404FF08051F868424B98477B6803F01F038F
S214400850012202FA03F319463B6803F001031A46E5
S214400860F8683C4B98476BE07B6803F01F03012217
S21440087002FA03F31A464FF0C051F868344B9847D3
S2144008807B6803F01F03012202FA03F319463B6814
S21440089003F001031A46F8682E4B984750E07B68F1
S2144008A003F01F03012202FA03F31A464FF00051E9
S2144008B0F868274B98477B6803F01F03012202FA2B
S2144008C003F319463B6803F001031A46F868214BC8
S2144008D0984735E07B6803F01F03012202FA03F3D2
S2144008E03A681946F8681C4B984729E07B6803F03D
S2144008F01F03012202FA03F319463B6803F06053D4
S214400900B3F1605F0CBF01230023DBB21A463B689D
S21440091003F00403002B14BF01230023DBB2184668
S2144009203B6803F00103002B14BF01230023DBB216
S21440093000930346F868094CA04701E0002300E016
S214400940012318461437BD4690BD00BF61094000DC
S214400950F10440009104400001064000810640003A
S21440096080B485B000AF78607B685B0903F5001300
S21440097003F207735B02FB60FB6818461437BD46FC
S21440098080BC704780B483B000AF78607B68D3F893
S214400990503143F001027B68C3F85021034B0122DB
S2144009A01A6000BF0C37BD4680BC7047B40A0020B2
S2144009B080B483B000AF78607B68D3F8503123F0C2
S2144009C001027B68C3F85021034B00221A6000BF27
S2144009D00C37BD4680BC7047B40A002080B584B052
S2144009E000AF7860396078682C4B9847F860786834
S2144009F02B4B98470246FB681340FB60FB68002B76
S214400A003CD00023BB6034E0264ABB681B0113443D
S214400A101A683B689A4226D1224ABB681B01134497
S214400A2004331A68FB681340002B1CD01D4ABB6871
S214400A301B0113440C331B681A49BA6812010A4456
S214400A4010681849BA6812010A44043212681146FE
S214400A509847144ABB681B01134404331B68DB43A6
S214400A60FA681340FB60BB680133BB60BB68062B6B
S214400A7003D8FB68002BC7D100E000BF0A4B1B68B9
S214400A80002B07D0094B1B68002B03D0074B1B6875
S214400A907868984700BF1037BD4680BD8307400042
S214400AA099074000D8090020B40A00204C0A0020CC
S214400AB080B586B000AFF860B9607A603B60214B85
S214400AC01B68062B01D9012338E00023FB7511E093
S214400AD0FB7D1B011C4A13443B613B691A68BB689B
S214400AE09A4204D13B695A687B689A4208D0FB7D9B
S214400AF00133FB75FA7D134B1B689A42E8D900E038
S214400B0000BF3B69BA681A603B697A685A603B69BD
S214400B103A689A603B693A6ADA60FA7D094B1B6824
S214400B2001339A4204D1074B1B680133054A1360D0
S214400B303A687968F868054B98470023184618378E
S214400B40BD4680BD480A0020D8090020E506400082
S214400B5080B500AF0B210248024B984700BF80BDCE
S214400B60000E0E40DD09400080B500AF0C21024863
S214400B70024B984700BF80BD00100E40DD09400084
S214400B8080B485B000AF78601C491C4B1B6B23F0CB
S214400B9070027B6813430B634FF40063FB6007E00F
S214400BA0FB68002B01D1012323E0FB68013BFB607F
S214400BB0124B9B6E03F00803002BF1D00F4A0F4BED
S214400BC01B6B23F0030343F0020313634FF40063ED
S214400BD0FB6007E0FB68002B01D1012309E0FB68BE
S214400BE0013BFB60054B9B6E03F00803002BF1D0E6
S214400BF0002318461437BD4680BC704700040E409C
S214400C0080B483B000AF78607B68012B07D1084A78
S214400C10074B9B6843F0254343F480139360044B93
S214400C20044A1A6000BF0C37BD4680BC704700BF00
S214400C3010140E40080000A580B400AF094B5B6955
S214400C4003F08003002B07D0074B9B6E03F0800316
S214400C50002B01D0012300E000231846BD4680BC8F
S214400C60704700BF10140E4000040E4080B483B09E
S214400C7000AF7860184A184B1B6A43F45C1343F085
S214400C800803136200BF144B9B6E03F40033002B23
S214400C90F9D01149104B1B6A23F45C1323F0700300
S214400CA07A68134343F45C130B6200BF0A4B9B6E97
S214400CB003F40033002BF9D0074A074B1B6A23F096
S214400CC09B7323F4803343F45C13136200BF0C37EA
S214400CD0BD4680BC704700BF00040E4080B483B061
S214400CE000AF786039607B68002B08D01649164BF9
S214400CF01B6A164A1A40164B13430B621EE01249F3
S214400D00114B1B6A23F45C1323F003033A68120268
S214400D1092B2134343F45C1343F001030B6200BFEB
S214400D20094B9B6E03F00103002BF9D0064A064B95
S214400D301B6A43F09B7343F48033136200BF0C3747
S214400D40BD4680BC704700BF00040E40FCFFC8FE96
S214400D500200370180B400AF034B9B6E03F4803330
S214400D601846BD4680BC704700040E4080B400AFB5
S214400D70034B4FF000529A6200BFBD4680BC70479E
S214400D8000040E4080B400AF034B9B6E03F002039A
S214400D901846BD4680BC704700040E4080B584B0FF
S214400DA000AFF860B9607A600D4B98470D487B6895
S214400DB0DAB2BB681B0203F47C531A43FB6819047F
S214400DC0094B0B401343C36200BF064B9B6E03F0B8
S214400DD00403002BF9D000BF1037BD4680BD00BFCE
S214400DE0ED0D400000040E400000FF0780B400AF49
S214400DF0034B0022DA6200BFBD4680BC704700BF8E
S214400E0000040E4080B400AF034B9B6E03F0040317
S214400E101846BD4680BC704700040E4080B483B080
S214400E2000AF78607B68222B01D901232FE07B68D6
S214400E301F2B13D8184B9A6901217B6801FA03F3DC
S214400E401A4001217B6801FA03F39A421ED0124AE7
S214400E5001217B6801FA03F3136117E07B68203BAE
S214400E607B600D4BD3F8082101217B6801FA03F320
S214400E701A4001217B6801FA03F39A4206D0064ADB
S214400E8001217B6801FA03F3C2F8003100231846BB
S214400E900C37BD4680BC704700040E4080B487B017
S214400EA000AFF860B9607A60FA68BB689B0113448B
S214400EB07B617B6902221A607B694FF0FF329A623F
S214400EC07B691B6A7B697A685A6000BF1C37BD46DF
S214400ED080BC704780B483B000AF786039607A6871
S214400EE03B689B01134405221A6000BF0C37BD4681
S214400EF080BC704780B485B000AFF860B9607A6057
S214400F00FA68BB689B0113441C337A681A6000BFBA
S214400F101437BD4680BC704780B487B000AFF860D9
S214400F20B9607A60FA68BB689B0113447B617B6951
S214400F307A685A6200BF1C37BD4680BC704780B492
S214400F4085B000AF786039607A683B689B0113448F
S214400F50FB60FB681B6A18461437BD4680BC70476A
S214400F6080B48DB000AFF860B9607A603B60022311
S214400F703B6108237B612023BB618023FB61BB6B05
S214400F80DB0B3B620023FB621AE0FB6A9B0007F127
S214400F903002134453F8203CBA68B2FBF3F3BB620A
S214400FA0BB6A1B0C7B62FA68BB6A9A4201D9002373
S214400FB023E0FA687B6A9A4206D2FB6A0133FB62F8
S214400FC0FB6A042BE1D900E000BFFB6A042B01D981
S214400FD0002312E07B68002B08D0FB6A9B0007F1D9
S214400FE03002134453F8202C7B681A603B68002B71
S214400FF002D03B68FA6A1A60012318463437BD4669
S21440100080BC704780B483B000AF78607B680822AD
S2144010101A607B6820221A607B6804221A6000BF30
S2144010200C37BD4680BC704780B584B000AF786052
S21440103039600023FB607B684FF0FF329A627B6822
S2144010401B6A78680E4B984778680E4B98473B6803
S21440105059683B681B681A4678680B4B98470346A6
S214401060012B01D10123FB603B685B7A012B02D147
S2144010707B6840221A60FB6818461037BD4680BD24
S214401080C5134000051040008D10400080B489B064
S21440109000AFF860B9607A600023FB61BB68344AF1
S2144010A0934201D901235DE0BB68324A934237D967
S2144010B07B68314AA2FB03239B0B043B7B61BA68E7
S2144010C02E4B13449B007A68B2FBF3F3043B3B6120
S2144010D005E0FB690133FB617B695B087B617B69EB
S2144010E0FF2B09D9FB69062BF3D905E0FB690133D1
S2144010F0FB613B695B083B613B69FF2B02D9FB699F
S214401100062BF3D97B69DAB23B691B029BB21A43C2
S214401110FB691B0403F4E0231A43FB681A6120E0D2
S214401120BB685B007A68B2FBF3F3043BBB6105E047
S214401130FB690133FB61BB695B08BB61BB69FF2B85
S21440114002D9FB69062BF3D9BB69DAB2BB691B022D
S2144011509BB21A43FB691B0403F4E0231A43FB6863
S2144011601A61002318462437BD4680BC704700BF2E
S214401170801A060000DC0500F11976050012FD3FD6
S21440118080B485B000AF786039603B68002B01D1F1
S21440119000231DE07B681B78FB603B68012B09DD64
S2144011A0FB681B02FB607B6801331B781A46FB68B2
S2144011B01343FB603B68022B09DDFB681B02FB60A8
S2144011C07B6802331B781A46FB681343FB60FB6858
S2144011D018461437BD4680BC7047000080B588B0BE
S2144011E000AF786039603B68DB68FB613B689B68B2
S2144011F0BB610023FB7547F230533B61FB69002B14
S21440120001D1012369E07B6800225A603B681B7C61
S2144012101B0403F4FE023B685B681B0203F4407346
S214401220134343F480527B685A607B680022DA603E
S2144012303A683B685B68194610462A4B9847024610
S2144012407B68DA60FB69012B05D17B6803221A6054
S2144012500123FB7534E07B6801221A600023FB758E
S2144012602EE07B681B6AFB60FB6803F48073002BF0
S21440127001D0052331E03B695A1E3A61002B01D16B
S21440128009232AE0FB69012B07D1FB7D002B04D103
S2144012907B6802221A600123FB75FB6803F0020399
S2144012A0002B00D10CE0BB695A1CBA617A68126BFD
S2144012B0D2B21A70FB69013BFB6147F230533B6187
S2144012C0FB69002BCDD100BF7B681B6A03F001038E
S2144012D0002BF9D07B681B6A002318462037BD4692
S2144012E080BD00BF8111400080B586B000AF7860F9
S2144012F039603B68DB687B613B689B683B617B6928
S214401300002B01D1012356E07B6800225A603B68DF
S2144013101B7C1B0403F4FE023B685B681B0203F461
S21440132040731A437B685A607B680022DA603A68EA
S2144013303B685B6819461046214B984702467B68D7
S214401340DA6019E07B681B6AFB60FB6803F4807315
S214401350002B01D005232EE0FB6803F00403002B8E
S21440136000D109E03B695A1C3A611B781A467B68F3
S2144013705A637B69013B7B617B69002BE2D17B68CA
S2144013801B6AFB60FB6803F48073002B01D00523C7
S21440139011E0FB6803F00403002B00D1EFE700BF29
S2144013A07B6802221A6000BF7B681B6A03F0010359
S2144013B0002BF9D0002318461837BD4680BD00BF25
S2144013C08111400080B483B000AF78607B68802293
S2144013D01A607B681B6B00BF0C37BD4680BC7047ED
S2144013E080B489B000AFF860B9607A60BB681A0113
S2144013F07B689A4202D81023FB6101E00823FB6118
S2144014007B68DA00FB69B96801FB03F35B081A44A2
S214401410FB69B96801FB03F3B2FBF3F3BB61BB693D
S214401420DB087B61BB6903F007033B617B69002BEC
S21440143003D07B69B3F5803F01D301230FE0FB69FE
S214401440082B05D1FB685B6843F40022FB685A60B2
S2144014503B691A047B691A43FB681A6200231846E4
S2144014602437BD4680BC704780B582B000AF7860F8
S21440147078680F4B98477B6800225A607B6800224A
S2144014805A627B6800229A6278680A4B9847786866
S214401490094B98477868094B98477868084B9847AF
S2144014A07868084B984700BF0837BD4680BD00BFE8
S2144014B019174000A5154000D515400037164000C6
S2144014C06B1640005116400080B584B000AFF860FF
S2144014D0B9607A60F8681A4B98471A4B00221A602F
S2144014E0BB68002B09D0BB681B687A681946F86849
S2144014F0154B98470346002B01D001231BE0BB68E1
S2144015005A68BB689B681A43BB681B691A43BB682A
S214401510DB681A430B4B1B6813430A4A1360094B9C
S2144015201B68084A1360FB685A68064B1B681A43D8
S214401530FB685A60002318461037BD4680BD00BF82
S21440154069144000500A0020E113400080B584B082
S21440155000AFF860B9607A607A68B968F8680A4B94
S21440156098470346002B01D0012308E0FB685B68E0
S21440157023F00F0343F00202FB685A60002318462C
S2144015801037BD4680BD00BFC914400080B483B04C
S21440159000AF78607B6840221A6000BF0C37BD46BB
S2144015A080BC704780B483B000AF78607B68882288
S2144015B01A6000BF0C37BD4680BC704780B483B00D
S2144015C000AF78607B6810221A6000BF0C37BD46BB
S2144015D080BC704780B483B000AF78607B682422BC
S2144015E01A6000BF0C37BD4680BC704780B483B0DD
S2144015F000AF786039607B683A689A6000BF0C3705
S214401600BD4680BC704780B483B000AF7860396018
S2144016107B683A68DA6000BF0C37BD4680BC7047CE
S21440162080B483B000AF78607B685B6918460C373F
S214401630BD4680BC704780B483B000AF78607B689E
S2144016404FF480721A6000BF0C37BD4680BC7047AE
S21440165080B483B000AF78607B684FF400321A6085
S21440166000BF0C37BD4680BC704780B483B000AF27
S21440167078607B684FF400221A6000BF0C37BD4686
S21440168080BC704780B483B000AF7860396000BFDC
S2144016907B685B6903F00203002BF9D03B68C3F319
S2144016A008027B68DA61002318460C37BD4680BCCA
S2144016B07047000080B582B000AF7860396007E0C0
S2144016C03B685A1C3A601B7819467868044B984722
S2144016D03B681B78002BF3D100BF0837BD4680BD62
S2144016E08516400080B483B000AF786039607B6870
S2144016F05B6903F00103002B01D1012306E07B6800
S2144017009B69C3F308023B681A60002318460C37EF
S214401710BD4680BC7047000080B483B000AF7860A0
S2144017207B68044AC3F8E42000BF0C37BD4680BC43
S214401730704700BF0041535580B483B000AF786017
S2144017407B684FF400425A6000BF0C37BD4680BCF1
S2144017507047000080B483B000AF0346FB7197F932
S2144017600730002B0BDB084997F907305B09FA79FD
S21440177002F01F02012000FA02F241F8232000BFC7
S2144017800C37BD4680BC704700E100E080B483B0B3
S21440179000AF0346FB7197F90730002B10DB0B496F
S2144017A097F907305B09FA7902F01F02012000FA28
S2144017B002F2203341F82320BFF34F8FBFF36F8FE1
S2144017C000BF0C37BD4680BC704700BF00E100E05C
S2144017D080B483B000AF0346FB7197F90730002B07
S2144017E00CDB094997F907305B09FA7902F01F02CA
S2144017F0012000FA02F2603341F8232000BF0C3784
S214401800BD4680BC704700BF00E100E080B483B0B6
S21440181000AF03463960FB7197F90730002B0ADBAF
S2144018200D4997F907303A68D2B21201D2B20B444A
S21440183083F800230AE00949FB7903F00F03043BD1
S2144018403A68D2B21201D2B20B441A7600BF0C37B5
S214401850BD4680BC704700BF00E100E000ED00E000
S21440186080B483B000AF78607B68072B25D801A290
S21440187052F823F0951840009B184000A1184000ED
S214401880A7184000AB184000AF184000B3184000FF
S214401890B71840004FF4FA4310E04FF400430DE011
S2144018A04FF400430AE0084B08E0084B06E0084BBC
S2144018B004E0074B02E0064B00E0002318460C37D6
S2144018C0BD4680BC704700BF00093D0000127A004C
S2144018D0001BB70080B500AF0620044B9847024671
S2144018E013469B0013449B00184680BD6118400079
S2144018F080B500AF024B984703465B08184680BD4C
S214401900D518400080B483B000AF78603960044B8F
S21440191001221A6000BF0C37BD4680BC704700BF2E
S214401920540A002090B583B002AF0A4B00930123BF
S2144019304FF400420B210848084CA0470B20084BA8
S21440194098474FF400410448064B984700BF043779
S214401950BD4690BD05194000000E0E40B10A40003D
S214401960551740004F07400080B584B000AF1320A5
S214401970134B9847134B984703467B60124BBB600C
S2144019803B1D19461148124B98471320114B984758
S2144019901320114B984700211320104B98471320D3
S2144019A00F4B98474FF0006103200E4B98474FF07F
S2144019B0006104200B4B984700BF1037BD4680BDE2
S2144019C01D0E4000F1184000801A060000800140BD
S2144019D0291040008D174000D11740000D184000D8
S2144019E055174000B107400080B582B000AF786020
S2144019F0396038681A4B98477B68D3F8503123F0E3
S214401A0001027B68C3F850217B68D3F8583143F015
S214401A1008027B68C3F858217B68D3F8503123F01E
S214401A2030027B68C3F850217B68D3F8503143F0CE
S214401A3020027B68C3F850217B68D3F8503123F4EA
S214401A4000727B68C3F850217B68D3F8503123F48A
S214401A5080627B68C3F8502100BF0837BD4680BD12
S214401A601D0E400080B485B000AFF860B9607A6063
S214401A70FB68D3F86C31002B12D1FB68D3F87C316D
S214401A80002B0DD1BA68FB68C3F86821FB687A68FA
S214401A90C3F86C21FB680122C3F8882101230FE0BC
S214401AA0FB68D3F87C31002B09D1BA68FB68C3F8D1
S214401AB07821FB687A68C3F87C21012300E0002384
S214401AC018461437BD4680BC7047000080B500AF4E
S214401AD0012201210720264B98470B212548264BFB
S214401AE09847264B98474FF080511120244B9847F3
S214401AF0244B23225A64234B4FF400721A6000BFD3
S214401B00204B9B6803F40073002BF9D01E4B98477C
S214401B104FF0605114201A4B984771211020184BF3
S214401B20984771210F20164B984718491820144B98
S214401B30984716491920124B984714491A20104BBB
S214401B40984712491B200E4B984710491C200C4BB7
S214401B5098470E491D200A4B98470C491E20084BB3
S214401B6098470A491F20064B984700BF80BD00BFD4
S214401B709D0D4000000E0E40E9194000251940001A
S214401B80B107400000040E406919400001000028DB
S214401B902DE9F84F00AF00BF2C482D4B9847034621
S214401BA0012BF9D0002129482A4B98470121274884
S214401BB0284B984702212548264B9847042123481E
S214401BC0244B9847244B9847034619464FF000024B
S214401BD00B461446DB1844EB04045B1844EB020443
S214401BE04FEA041B4BEA137B4FEA031A53465C4604
S214401BF05B1A64EB02044FEAC40949EA53794FEA98
S214401C00C30843464C465B1A64EB0204E60046EAC9
S214401C105376DD002B4634461946224643F2AF63E0
S214401C204FF00004CD1842EB0406284631460B4CD4
S214401C3043F2B0624FF00003A04703460C461846F6
S214401C40074B984700BFBDE8F88F00BF00800140B3
S214401C50F12040007D214000F1184000F134400062
S214401C600100002080B582B000AF4FF40041184814
S214401C70184B984700BF184B1B68002BFBD04FF4FF
S214401C8000411348154B98471148154B984743F267
S214401C90D40214490E48144B984700BF0C4BD3F857
S214401CA0603103F00803082BF8D109480F4B9847DA
S214401CB00F4B00221A60084B00221A600D4B9847C3
S214401CC00346FB71FB7918460837BD4680BD00BF0A
S214401CD0000E0E404F074000540A0020690740009F
S214401CE085094000C40A0020651A4000B10940003A
S214401CF0BC0A0020F91C400080B483B000AF00232B
S214401D00FB7100233B60214B00221A60204B0022CF
S214401D101A6028E01F4A3B6813441B78FF2B0AD101
S214401D203B6801331B4AD35CD82B04D1174A3B6827
S214401D3013600123FB71174A3B6813441B78FF2B43
S214401D400ED13B680133134AD35CD92B08D1FB79BB
S214401D50012B05D13B6802330D4A136001230FE087
S214401D603B6801333B603B6801334CF24F32934251
S214401D70D0D9064B00221A60054B00221A60002379
S214401D8018460C37BD4680BC704700BFB80A0020D6
S214401D90C00A0020C40A002080B483B000AF786038
S214401DA07B68072B25D801A252F823F0CD1D4000B2
S214401DB0D31D4000D91D4000DF1D4000E31D4000FC
S214401DC0E71D4000EB1D4000EF1D40004FF4FA4376
S214401DD010E04FF400430DE04FF400430AE0084B98
S214401DE008E0084B06E0084B04E0074B02E0064BD1
S214401DF000E0002318460C37BD4680BC704700BF45
S214401E0000093D0000127A00001BB70080B500AF05
S214401E100620044B9847024613469B0013449B00FB
S214401E20184680BD991D400080B500AF024B9847CC
S214401E3003465B08184680BD0D1E400080B58EB038
S214401E4000AF78600023FB600023BB60302387F838
S214401E5034300A2387F824300123BB6207F10C0391
S214401E60FB6201233B6307F12403194678680E4B57
S214401E709847302387F820300B233B7401237B613F
S214401E8007F10803BB610123FB6107F11003194604
S214401E907868054B9847FB681A02BB681343184698
S214401EA03837BD4680BD00BFD51F400080B58AB0DC
S214401EB000AF786000233B610023FB601C233B752A
S214401EC00123BB61302387F8243007F11003FB6100
S214401ED001233B6207F1140319467868104B984774
S214401EE01D233B750123BB61302387F8243007F15F
S214401EF00C03FB6101233B6207F114031946786823
S214401F00074B98473B697F2B04D1FB68A22B01D136
S214401F10002300E0012318462837BD4680BD00BF99
S214401F20D51F400080B58AB000AF786000233B6183
S214401F300023FB600023BB6001233B750123BB618C
S214401F40302387F8243001233B6207F10C03FB6102
S214401F5007F11403194678681C4B9847AD23BB60BD
S214401F6007F10803FB6107F1140319467868184B1C
S214401F70984707F11003FB6107F114031946786888
S214401F80124B98473A69BB689A4201D0012318E041
S214401F9007F10C03FB6107F11403194678680C4BF4
S214401FA0984707F11003FB6107F114031946786858
S214401FB0064B98473A69FB689A4201D0012300E0F5
S214401FC0002318462837BD4680BD00BFD51F4000B9
S214401FD0F91F400080B584B000AF7860396039683A
S214401FE07868044B9847F860FB6818461037BD463B
S214401FF080BD00BFDD11400080B584B000AF786082
S214402000396039687868044B9847F860FB6818462A
S2144020101037BD4680BD00BFE91240002DE9F048AC
S2144020208AB000AF7860396000237B623B683B62D1
S21440203048E03B6A1B78FE2B26D1294B984703463F
S21440204019464FF000020B461446A60046EA937621
S2144020509D002B4634465B1844EB020443F2AF61C6
S2144020604FF0000213EB010B44EB020C584661465E
S2144020701C4C43F2B0624FF00003A04703460C46A8
S2144020801846194B98471AE03B6A1B783B72012367
S214402090FB6030233B7601237B613B6A01333B6127
S2144020A007F1080319467868104B9847F8617B6A31
S2144020B001337B62FB69082B01D1FB690BE03B6A6D
S2144020C002333B623B6A1B78FF2BB2D13B6A5B789C
S2144020D0FF2BAED1002318462837BD46BDE8F08812
S2144020E0291E4000F134400001000020F91F400046
S2144020F080B58AB000AF7860012387F8233007F1B7
S2144021000C0300221A605A609A60DA601A61FF2354
S2144021103B7301233B6107F123037B610123BB61D2
S21440212030233B7707F10C03194678680F4B9847E6
S21440213000237B6278680E4B984778627B6A1B0A5E
S214402140DBB2262B0DD178680A4B98470346002B06
S21440215007D17868084B98470346002B01D10023E7
S21440216000E0012318462837BD4680BDF91F4000D1
S2144021703D1E4000AD1E4000251F400080B584B087
S21440218000AF78600B46FB700023FB60FB78112B9A
S2144021905CD801A252F823F0E1214000E72140003C
S2144021A0ED214000F3214000F9214000FF2140008E
S2144021B0052240000B22400011224000172240001A
S2144021C01D22400023224000292240002F224000AA
S2144021D0352240003B22400041224000472240003A
S2144021E0224BFB6033E0224BFB6030E0214BFB6030
S2144021F02DE0214BFB602AE0204BFB6027E0204B84
S214402200FB6024E01F4BFB6021E01F4BFB601EE0A1
S2144022101E4BFB601BE01E4BFB6018E01D4BFB603B
S21440222015E01D4BFB6012E01C4BFB600FE01C4BA7
S214402230FB600CE01B4BFB6009E01B4BFB6006E0C1
S2144022401A4BFB6003E01A4BFB6000E000BFFB68E4
S214402250002B05D0F9687868164B9847002300E0B5
S214402260012318461037BD4680BD00BFC4834000DA
S21440227044854000588540006C854000BC85400041
S2144022801086400064864000B486400008874000C0
S2144022905C8740004C8840003C8940002C8A4000C7
S2144022A01C8B4000108C4000048D4000F88D400090
S2144022B0EC8E40001D20400080B483B000AF034643
S2144022C0FB7197F90730002B0BDB084997F907306D
S2144022D05B09FA7902F01F02012000FA02F241F887
S2144022E0232000BF0C37BD4680BC704700E100E0AD
S2144022F080B483B000AF78607B68072B25D801A2F6
S21440230052F823F0252340002B2340003123400081
S214402310372340003B2340003F23400043234000F8
S214402320472340004FF4FA4310E04FF400430DE0DB
S2144023304FF400430AE0084B08E0084B06E0084B21
S21440234004E0074B02E0064B00E0002318460C373B
S214402350BD4680BC704700BF00093D0000127A00B1
S214402360001BB70080B500AF0620044B98470246D6
S21440237013469B0013449B00184680BDF122400044
S21440238080B500AF024B984703465B08184680BDB1
S2144023906523400080B582B000AF002109480A4B53
S2144023A0984778607B6803F01003002B06D0074BF5
S2144023B01B78DBB20133DAB2044B1A7000BF083721
S2144023C0BD4680BD000001403F0F4000740A00201B
S2144023D090B587B002AF184B9847F8601720174B58
S2144023E09847391D07F10802FB6800930B46F968C9
S2144023F00120134CA0477B6843F480431A460021D3
S2144024001048114B9847BB68FA68B2FBF3F31A467C
S21440241000210C480D4B984717200D4B984710222B
S214402420002108480B4B9847002106480A4B98471E
S21440243000BF1437BD4690BD812340001D0E4000AE
S214402440610F4000000001409D0E4000F50E400028
S214402450B9224000190F4000D50E400080B483B02A
S21440246000AF0346FB7197F90730002B0BDB08499A
S21440247097F907305B09FA7902F01F02012000FA4B
S21440248002F241F8232000BF0C37BD4680BC70479F
S21440249000E100E080B483B000AF78607B68072B33
S2144024A025D801A252F823F0C9244000CF2440008A
S2144024B0D5244000DB244000DF244000E3244000D5
S2144024C0E7244000EB2440004FF4FA4310E04FF47A
S2144024D000430DE04FF400430AE0084B08E0084B89
S2144024E006E0084B04E0074B02E0064B00E0002302
S2144024F018460C37BD4680BC704700BF00093D00FB
S21440250000127A00001BB70080B500AF0620044BCF
S2144025109847024613469B0013449B00184680BDCE
S2144025209524400080B500AF024B984703465B08B1
S214402530184680BD0925400080B500AF024B98473D
S21440254003465B08184680BD0925400080B582B02A
S21440255000AF78607868034B984700BF0837BD46A1
S21440256080BD00BF1D0E400080B582B000AF0B4856
S2144025700B4B984778607B6803F48053002B09D058
S21440258008490648084B9847064B1B68DBB2184676
S214402590064B984700BF0837BD4680BD0040024006
S2144025A021164000580A0020E51640007D294000CC
S2144025B080B584B000AF786039600D4B98470D4BBE
S2144025C001221A600023FB6007E00B4AFB681344B5
S2144025D000221A70FB680133FB60FB68B3F57A7F14
S2144025E0F3DB064B00221A6000BF1037BD4680BDA5
S2144025F0AD294000640A002014CE00205C0A00206A
S21440260080B483B000AF78603960044B01221A6012
S21440261000BF0C37BD4680BC704700BF600A002034
S214402620B0B586B000AF4FF0006105201C4B984710
S2144026304FF0006106201A4B98474FF00061082083
S214402640174B9847174B3C461D460FCD0FC495E891
S214402650030084E80300144B98470246134B1A6065
S2144026600E20134B9847114B1A683B4619461148A3
S214402670114B98474FF0FF310E48104B98470D4886
S2144026800F4B98470B480F4B9847012109480E4B74
S21440269098470E200D4B984700BF1837BD46B0BD33
S2144026A0B1074000DC8F400039254000780A002002
S2144026B04D254000004002404D15400007164000A2
S2144026C08D154000BD154000ED1540005D244000CE
S2144026D090B583B002AF0C200E4B98470A224FF4B9
S2144026E080610D480D4B98470D4B009370234FF477
S2144026F080620C2108480B4CA0470C200A4B984798
S2144027004FF480610448094B984700BF0437BD46E4
S21440271090BD00BF1D0E400000100E40BB044000A0
S214402720B1254000B10A40005D2440004F074000FC
S21440273090B583B002AF0B200E4B98470A224FF459
S21440274080010D480D4B98470D4B009370234FF476
S21440275080020B2108480B4CA0470B200A4B984799
S2144027604FF480010448094B984700BF0437BD46E4
S21440277090BD00BF1D0E4000000E0E40BB04400042
S21440278001264000B10A40005D2440004F0740004B
S21440279080B582B000AF78600B46FB7079680C4815
S2144027A00C4B98470C4B00221A6007E00B4B1B68FB
S2144027B0012B03D1094B00221A6005E0FA78064B3C
S2144027C01B689A42F2D800BF0837BD4680BD00BF9E
S2144027D000400240B5164000740A0020640A0020FB
S2144027E02DE9F04F9DB000AF544B98470346002B61
S2144027F000F09F80524B1A68524B1B68D31A524ABD
S214402800136007F108036422002118464F4B98478F
S2144028104D4B1A6807F108034D4918464D4B9847EB
S21440282007F10803022118464B4B98474B4B9847F5
S214402830034619464FF000020B461446DB1844EB9D
S21440284004045B1844EB0204660146EAD3665D0165
S2144028505B1944EB06045B1844EB020443F2AF6199
S2144028604FF000025D1844EB0206284631463C4CC9
S21440287043F2B0624FF00003A04703460C461846AA
S214402880384B98472F4B1B68FB660AE0364AFB6E70
S21440289013441B7819463548354B9847FB6E013331
S2144028A0FB66274B1B68FA6E9A42EFD331492F4896
S2144028B0314B9847294B9847034619464FF000023C
S2144028C00B46144660017860786840EAD3607860CA
S2144028D05B013B60D7E900345B1A64EB02044FEAC5
S2144028E0840B4BEA937B4FEA830A53465C465B185D
S2144028F044EB02044FEA041949EA13794FEA0318F5
S21440290043464C461946224643F2AF634FF0000416
S214402910CD1842EB040628463146114C43F2B062CD
S2144029204FF00003A04703460C4618460D4B984709
S21440293000E000BF7437BD46BDE8F08FF91C40008C
S214402940C00A0020B80A0020680A0020513840001B
S214402950F48F4000ED384000912740002525400088
S214402960F134400001000020C40A0020004002402C
S214402970851640000C904000B516400080B483B0E9
S21440298000AF0346FB71074B1B680749FA79CA54E8
S214402990044B1B680133034A136000BF0C37BD4627
S2144029A080BC70475C0A002014CE002080B500AF83
S2144029B00A490B480B4B98470346002B02D00A4B5C
S2144029C001221A6009490648064B98470346002BE1
S2144029D002D0074B01221A6000BF80BD189040000D
S2144029E014CE0020E93B4000700A002020904000B2
S2144029F06C0A002080B582B000AF78607868034BE0
S214402A00984700BF0837BD4680BD00BF1D0E40003A
S214402A1080B500AF0B20034B98470C20014B9847DE
S214402A2000BF80BDF529400080B48DB000AF78600F
S214402A300B46FB707B68FB62FB7887F82B30FB6AA3
S214402A407B627B6A3B623B6A5B09FB61FB6903F521
S214402A50001303F207735B02BB6197F82B30012B20
S214402A6009D1FB6A7B617B6903F01F0301229A4010
S214402A70BB691A610CE097F82B30002B08D1FB6A33
S214402A803B613B6903F01F0301229A40BB695A61D0
S214402A90FB6AFB60FB6803F01F0301229A40BB6998
S214402AA0C3F8A02000BF3437BD4680BC704780B412
S214402AB08BB000AF78600B46FB707B687B62FB7820
S214402AC087F823307B6AFB61FB69BB61BB695B09A6
S214402AD07B617B6903F5001303F207735B023B617E
S214402AE097F82330002B09D07B6AFB60FB6803F025
S214402AF01F0301229A403B691A6308E07B6ABB6069
S214402B00BB6803F01F0301229A403B695A6300BF2B
S214402B102C37BD4680BC704780B500AF0F4B9847FA
S214402B20012100200E4B9847012100200D4B98476D
S214402B30012107200A4B984700210720094B984758
S214402B4001211420064B984700211420044B984737
S214402B5000210A20024B984700BF80BD112A400042
S214402B60292A4000AF2A400080B584B000AF274BEA
S214402B70FB60274BBB60FA68BB689A420DD907E0FA
S214402B80BB681A1DBA60FA68111DF96012681A60AF
S214402B90BB68204A9342F3D320E0FA68BB689A4267
S214402BA01CD21C4A1A4BD31A7B60FA687B681344C3
S214402BB0043BFB60BA687B681344043BBB600AE096
S214402BC0BB681A1FBA60FA68111FF96012681A606B
S214402BD07B68043B7B607B68002BF1D100BF0E4BCB
S214402BE0BB6004E0BB681A1DBA6000221A60BB686E
S214402BF00A4A9342F6D30A4BFB600A4AFB68936044
S214402C00094B9847094B9847FEE700BFD4934000CE
S214402C1000000020BC090020BC09002000D2002093
S214402C200000400000ED00E0013840001930400050
S214402C3080B400AFFEE7000080B400AF5D4B1B6B76
S214402C4003F00303032B00F2968001A252F823F010
S214402C50612C4000812C4000CB2C4000CB2C400007
S214402C60554B5B6903F08003002B04D0534B4FF465
S214402C7000421A6080E0514B4FF4FA421A607BE003
S214402C804C4B1B6A03F08073002B03D04B4B4C4AD3
S214402C901A6071E0494B4B4A1A60464B1B6A03F078
S214402CA07003102B08D0202B0AD0002B00D00BE04E
S214402CB0424B444A1A6007E0404B434A1A6003E0DE
S214402CC03E4B3F4A1A6000BF56E03A4B1B6A03F041
S214402CD08073002B03D0394B394A1A6019E0374BC2
S214402CE0384A1A60334B1B6A03F07003102B08D027
S214402CF0202B0AD0002B00D00BE0304B314A1A6014
S214402D0007E02E4B304A1A6003E02C4B2C4A1A60E0
S214402D1000BF284B1B6B03F00303022B15D1254B3A
S214402D209B6A1B0CC3F30A030133244A126802FB56
S214402D3003F3224A13601F4B9B6ADBB21F4A12689A
S214402D40B2FBF3F31D4A136016E01A4BDB6A1B0C0A
S214402D50C3F30A030133194A126802FB03F3174A06
S214402D601360144BDB6ADBB2144A1268B2FBF3F30F
S214402D70124A136000E000BF0E4B1B6B03F070035B
S214402D80702B08D10D4B1B68104AA2FB03235B082F
S214402D900A4A13600AE0074B1B6B1B0903F0070344
S214402DA0064A126822FA03F3044A136000BFBD467F
S214402DB080BC704700040E4010140E400C000020EB
S214402DC0001BB70000093D0000127A00ABAAAAAA71
S214402DD080B483B000AF78607B68184A934204D8CA
S214402DE0174B4FF080621A6023E07B68154A934287
S214402DF003D8134B144A1A601BE07B68134A93426D
S214402E0003D80F4B124A1A6013E07B68114A93426C
S214402E1003D80B4B104A1A600BE07B680F4A93426C
S214402E2004D8074B4FF004221A6002E0044B0C4AC9
S214402E301A6000BF0C37BD4680BC7047FF2C31017E
S214402E40000A0E40FF59620200010004FF86930309
S214402E5000020004FFB3C40400030004FFE0F505CD
S214402E600005000480B485B000AF7860104BFB606E
S214402E70104B1B68002B02D10E4B0F4A1A600D4BAD
S214402E801B68BB60BA687B681A44FB689A4202DDDE
S214402E904FF0FF3306E0074B1A687B681344054A39
S214402EA01360BB6818461437BD4680BC704700BFE9
S214402EB0FCFF01207C0A00200002012080B483B081
S214402EC000AF78607B68072B25D801A252F823F024
S214402ED0F12E4000F72E4000FD2E4000032F40000C
S214402EE0072F40000B2F40000F2F4000132F4000AD
S214402EF04FF4FA4310E04FF400430DE04FF4004324
S214402F000AE0084B08E0084B06E0084B04E0074B95
S214402F1002E0064B00E0002318460C37BD4680BC56
S214402F20704700BF00093D0000127A00001BB70042
S214402F3080B500AF0620044B9847024613469B00D8
S214402F4013449B00184680BDBD2E400080B500AFA0
S214402F50024B984703465B08184680BD312F400019
S214402F6080B48BB000AF78600B46FB707B687B62AA
S214402F70FB7887F823307B6AFB61FB69BB61BB69E2
S214402F805B097B617B6903F5001303F207735B0201
S214402F903B6197F82330002B09D07B6AFB60FB68C7
S214402FA003F01F0301229A403B691A6308E07B6ADC
S214402FB0BB60BB6803F01F0301229A403B695A631B
S214402FC000BF2C37BD4680BC704780B489B000AF88
S214402FD078607B68FB61FB69BB61BB697B617B6931
S214402FE05B093B613B6903F5001303F207735B0221
S214402FF0DA6BFB69FB60FB6803F01F03012101FAF3
S21440300003F31340002B14BF01230023DBB2184602
S2144030102437BD4680BC70472DE9F04F93B000AFD3
S2144030209E4B98479E489F4B98479F4B98479F4B31
S21440303098479F4B98479F4B98479F4B98479F4B27
S21440304098479F4B984702219E489F4B984702219E
S2144030509E489D4B984702219D489B4B984702218E
S2144030609C48994B984702219B48974B984702218A
S2144030709A48954B984702219948934B9847022186
S2144030809848914B9847022197488F4B9847022182
S21440309096488D4B984700210020954B9847954B76
S2144030A09847034619464FF000020B461446DB1875
S2144030B044EB04045B1844EB0204660146EAD3661C
S2144030C05D015B1944EB06045B1844EB020443F2D3
S2144030D0AF614FF000025D1844EB020628463146C9
S2144030E0854C43F2B0624FF00003A04703460C46BF
S2144030F01846824B9847012100207D4B9847804ACE
S2144031000023136039E07E4B1B68002B35D001212D
S2144031107C486D4B9847774B9847034619464FF087
S21440312000020B461446DB1844EB04045B1844EBE1
S21440313002044FEA441B4BEAD36B4FEA431A13EBA5
S2144031400A0344EB0B045B1844EB020443F2AF6102
S2144031504FF000025D1844EB020628463146664CA6
S21440316043F2B0624FF00003A04703460C461846B1
S214403170624B9847624A002313600A20624B984786
S214403180034683F00103DBB2002BBCD15C4A00232C
S21440319013605B4B1B68002B00F0368101215948B9
S2144031A0494B9847534B9847034619464FF0000201
S2144031B00B461446DB1844EB04045B1844EB02044D
S2144031C04FEA441949EAD3694FEA431813EB080318
S2144031D044EB09045B1844EB020443F2AF614FF042
S2144031E000025D1844EB020628463146424C43F244
S2144031F0B0624FF00003A04703460C4618463F4BCC
S21440320098473F4A002313603EE03D4B1B68002B27
S2144032103AD001213B482C4B9847364B98470346BB
S21440322019464FF000020B461446DB1844EB0404E4
S2144032305B1844EB02046001F863F86B40EAD36025
S214403240F8635801B863D7E90E56ED1846EB040606
S2144032502B4634465B1844EB020443F2AF614FF012
S21440326000025D1844EB020628463146224C43F2E3
S214403270B0624FF00003A04703460C4618461F4B6B
S21440328098471F4A002313600A201F4B984703465F
S21440329083F00103DBB2002BB7D1B5E02104400038
S2144032A050140E4039174000192B4000D1234000DF
S2144032B021264000D126400031274000CD1A40004C
S2144032C0911B4000289040009127400040904000CD
S2144032D0649040007C90400094904000AC90400049
S2144032E0C8904000D8904000EC90400000914000CC
S2144032F0612F40004D2F4000F13440000100002077
S214403300600A002008914000CB2F4000002100209A
S2144033106D4B98476D4B9847034619464FF0000251
S2144033200B461446DB1844EB04045B1844EB0204DB
S21440333060017863786B40EAD360786358013863FD
S214403340D7E90C56ED1846EB04062B4634465B1878
S21440335044EB020443F2AF614FF000025D1844EBC9
S2144033600206284631465A4C43F2B0624FF00003FC
S214403370A04703460C461846564B98470121002066
S214403380514B9847514B9847034619464FF0000219
S2144033900B4614466001F862F86A40EAD360F86269
S2144033A05B01BB62D7E90A345B1A64EB0204A000F7
S2144033B07862786A40EA937078629B003B62D7E90D
S2144033C008345B1844EB0204A200FA61FA6942EA48
S2144033D09372FA619B00BB61D7E9063419462246D0
S2144033E043F2AF634FF00004CD1842EB0406284684
S2144033F03146374C43F2B0624FF00003A0470346D5
S2144034000C461846334B98470A20334B984703469A
S21440341083F00103DBB2002B7FF478AF01212F4805
S2144034202F4B98472F4B1B68002B45D0274B984770
S214403430034619464FF000020B4614466001786179
S214403440786940EAD36078615B013B61D7E9043430
S2144034505B1A64EB0204A000F860F86840EA9370D8
S214403460F8609B00BB60D7E902345B1844EB02046B
S214403470E2007A607A6842EA53727A60DB003B6028
S214403480D7E900341946224643F2AF634FF00004B2
S214403490CD1842EB0406284631460D4C43F2B06246
S2144034A04FF00003A04703460C461846094B984782
S2144034B00C4B00221A60B5E70B4B9847034687F83B
S2144034C047300A4B9847ADE7612F40004D2F4000EC
S2144034D0F134400001000020CB2F40001491400002
S2144034E091274000700A0020651C4000E1274000FC
S2144034F053B94AB9002908BF00281CBF4FF0FF3116
S2144035004FF0FF3000F07AB9ADF1080C6DE904CE0B
S21440351000F006F8DDF804E0DDE9022304B0704769
S2144035202DE9F0478C460D460446089E002B51D1A7
S2144035308A4217466DD9B2FA82FEBEF1000F0BD012
S214403540CEF1200C01FA0EF520FA0CFC02FA0EF72A
S2144035504CEA050C00FA0EF44FEA174A250CBCFB61
S214403560FAF81FFA87F90AFB18CC45EA0C4508FB1F
S21440357009F3AB420AD9ED1908F1FF3280F02381F6
S214403580AB4240F22081A8F102083D44ED1AA4B2B5
S214403590B5FBFAF00AFB105544EA054400FB09F96E
S2144035A0A14509D9E41900F1FF3380F00A81A1450D
S2144035B040F2078102383C44A4EB090440EA084044
S2144035C00021002E61D024FA0EF40023346073608C
S2144035D0BDE8F0878B4207D9002E54D0002186E8FC
S2144035E021000846BDE8F087B3FA83F1002940F091
S2144035F08E80AB4202D3824200F2FA80841A65EB98
S21440360003050120AC46002E3FD086E81010BDE8EA
S214403610F08712B90127B7FBF2F7B7FA87FEBEF17B
S214403620000F34D1EB1B3A0C1FFA87FC0121B3FB89
S214403630F2F8250C02FB183345EA03450CFB08F369
S214403640AB4207D9ED1908F1FF3002D2AB4200F287
S214403650D1808046ED1AA3B2B5FBF2F002FB1055BE
S21440366043EA05440CFB00FCA44507D9E41900F1E5
S214403670FF3302D2A44500F2B8801846A4EB0C04EF
S21440368040EA08409DE731463046BDE8F087CEF137
S214403690200405FA0EF307FA0EF720FA04F83A0C5F
S2144036A025FA04F448EA0308B4FBF2F14FEA184559
S2144036B002FB11441FFA87FC45EA044501FB0CF364
S2144036C0AB4200FA0EF409D9ED1901F1FF3080F053
S2144036D08A80AB4240F2878002393D44EB1A1FFA9B
S2144036E088F5B3FBF2F002FB103345EA034500FBD6
S2144036F00CF3AB4207D9ED1900F1FF386FD2AB425D
S2144037006DD902383D44EB1A40EA01418FE7C1F1DA
S214403710200722FA07F88B4005FA01F448EA03032B
S21440372020FA07FE4FEA134CFD404EEA040EB5FB66
S214403730FCF94FEA1E440CFB19551FFA83F844EA7D
S214403740054509FB08F4AC4202FA01F200FA01FA18
S21440375008D9ED1809F1FF3043D2AC4241D9A9F15E
S21440376002091D442D1B1FFA8EFEB5FBFCF00CFB18
S21440377010554EEA054400FB08F8A04507D9E41862
S21440378000F1FF3529D2A04527D902381C4440EA2B
S2144037900940A4EB0804A0FB02894C45C6464D46AA
S2144037A015D312D056B1BAEB0E0364EB050404FAF7
S2144037B007F7CB401F43CC40376074600021BDE81C
S2144037C0F0871846F8E69046E0E6C245EAD2B8EBFF
S2144037D0020E69EB03050138E4E72846D7E7404682
S2144037E091E78146BEE7014678E702383C4445E724
S2144037F0084608E7A8F102083D442BE7704700BF9B
S21440380070B50F4E0F4D761BB61018BF002405D06E
S214403810013455F8043B9847A642F9D10A4E0B4D61
S214403820761B05F0C1FDB61018BF002406D0013443
S21440383055F8043B9847A642F9D170BD70BD00BF0D
S214403840B4934000B4934000BC934000B49340000F
S21440385070B4860746D0541E002A41D0CAB20346EA
S21440386002E014F1FF343BD303F8012B9D07F8D157
S214403870032C2ED9CDB245EA05250F2C45EA054541
S21440388019D903F110022646103E0F2E42F8105C5E
S21440389042F80C5C42F8085C42F8045C02F1100204
S2144038A0F2D8A4F1100222F00F0204F00F041032F6
S2144038B0032C13440DD91E462246043A032A46F8E2
S2144038C0045BFAD8221F22F003020432134404F0A9
S2144038D003042CB1C9B21C4403F8011B9C42FBD123
S2144038E070BC704714460346C2E700BF0EB4F0B53E
S2144038F09CB021AB0F4953F8042B019305466FF05B
S2144039000044086802954FF402774FF6FF7602A906
S2144039100695ADF8147004940794ADF8166000F060
S2144039206FFA029B00221A701CB0BDE8F04003B04C
S214403930704700BF100000202DE9F0414FF0010E07
S214403940744600254FF0FF362B198B4200EB0607D6
S2144039500DD23F5D10F803C0BC452DD21D46012454
S214403960A3EB060E2B198B4200EB0607F1D34FF064
S2144039700108C2F800E0444600254FF0FF372B19F7
S214403980994200EB070E0ED91EF804E010F803C06B
S214403990F44518D91D460124A3EB07082B19994274
S2144039A000EB070EF0D80137701C874224BFC2F8E0
S2144039B000803846BDE8F0810CD04FF0010E2E4610
S2144039C074467544C0E70BD04FF001082F46444676
S2144039D04544D4E7744512BF01341D460124B3E77D
S2144039E0444512BF01341D460124C8E72DE9F04F77
S2144039F0ADF2144D164605468B461046194603AAA8
S214403A001C46FFF799FF03AB81460DF20C4243F884
S214403A10044F9342FBD14CB1631E721E04A812F8A9
S214403A20011F40F8213013F1FF33F8D203994A467C
S214403A303144304602F004FF00286FD109F1FF33CD
S214403A400093F318824601932346804654465846D0
S214403A509A4608EB0A073A1A0021284402F0A0FECC
S214403A60002856D1002F54D0EB1904AA13F8013C75
S214403A7052F823304BB124B1039A934201D2AAEBB9
S214403A800203984400243846E3E74C4523460AF1AF
S214403A90FF3E38BF4B46734513D208EB030216F879
S214403AA003C0A85C84452A4406EB030106D02CE0FC
S214403AB011F801CF12F8010F844526D10133734522
S214403AC0F6D34C45009980F08980009B08EB0302B2
S214403AD0019BA85C1B7898422A447FD1019804F148
S214403AE0FF3B06E010F801CD12F801EDF44503D196
S214403AF019464B1E9B45F5D101348C4270D8039C29
S214403B003846A044AAEB0404A3E7C9F10102904456
S214403B10B7E700200DF2144DBDE8F08FA4EB090383
S214403B204B4538BF4B46013309F1FF38039306EB4C
S214403B30080358464FF0000ACB4699460AEB04075E
S214403B403A1A0021284402F02BFE0028E1D1002F2B
S214403B50DFD0EB1904AA13F8013C52F82330A3BB7C
S214403B60611E8B4515D20AEB0B0216F80B3015F882
S214403B7002E09E452A4406EB0B005B4606D027E053
S214403B8010F801CF12F801EFF44521D101338B42F2
S214403B90F6D3B8F1FF3F11D00AEB080299F80010AF
S214403BA0AB5C99422A440FD14B4605E013F8010D11
S214403BB012F8011D884207D1B342F7D105EB0A003F
S214403BC00DF2144DBDE8F08F039B9A443846B5E796
S214403BD0CBF1010292449A443846AFE749468BE718
S214403BE005EB080096E700BF0278002A00F0018146
S214403BF02DE9F04F91F8008085B04446B8F1000FAB
S214403C0016D0864601F1010C012703E013F8014B5C
S214403C106CB19C46A24214BF002707F001071EF86D
S214403C20012F6346002AF1D19CF80030FBB917B14A
S214403C3005B0BDE8F08F0E46054641460130ACEB78
S214403C40060403F0D7F9074688B1012CF0D02819AE
S214403C50874294BFC11B01211F2C8B460BD923469C
S214403C6032463846FFF7C2FE05B0BDE8F08F00206A
S214403C7005B0BDE8F08F03AA21463046FFF75CFE4C
S214403C800399804602463144304602F0D9FD00286A
S214403C9057D108F1FF330093F31881460546019348
S214403CA05846B2466619321A0021384402F078FD6A
S214403CB00028DCD1002EDAD0C845434638BF4B46F4
S214403CC09C4212D95A191AF80310B85C81423A44F9
S214403CD00AEB030E06D02CE01EF8010F12F8011F67
S214403CE0884226D101339C42F6D1C845009940F21D
S214403CF08380009BEA18019BB85C1B7898423A4444
S214403D007AD1019809F1FF3B06E010F801CD12F890
S214403D1001EDF44503D119464B1E5B45F5D109F13B
S214403D200109894557D8039B30461D44A4EB030937
S214403D30B8E7C8F1010215441D444FF0000930466B
S214403D40B0E7A4EB0803434538BF4346013308F1C8
S214403D50FF39039306EB090358460025BB469A46AF
S214403D6067193A1A0021584402F01AFD00287FF4D9
S214403D707EAF002F3FF47BAF444515D908EB0502D4
S214403D8016F808301BF8020098425A4406EB080121
S214403D90434606D023E011F801EF12F8010F86459E
S214403DA01DD101339C42F6D1B9F1FF3F12D005EB4D
S214403DB009029AF800301BF8021099425A4414D16E
S214403DC0534605E013F8010D12F8011D88420CD148
S214403DD0B342F7D15F46781905B0BDE8F08FC8F119
S214403DE0010215441D443846BAE7039B38461D4435
S214403DF0B6E70B7813B97047414690E70020704706
S214403E002DE9F04FC3B00C460B9192460F930C90A1
S214403E1002F006FA03681A93184603F071F9A3896C
S214403E201990190603D52369002B01F00180002361
S214403E300DF1C8091393149315932793269318935B
S214403E401B930993CDF89490C846169317939AF807
S214403E5000305446E3B1252B02D119E0252B03D080
S214403E6014F8013F002BF9D1A4EB0A0585B1269B37
S214403E70279AC8F800A001332A44072BC8F80450F4
S214403E80279226937FDC08F10808099B2B44099368
S214403E902378002B7FD000231A468DF877301946BA
S214403EA00D939B464FF0FF3063780A9004F1010A69
S214403EB00AF1010AA3F12000582800F2C083DFE887
S214403EC010F03802BE03BE034002BE03BE03BE036C
S214403ED0BE03BE03BE0345020302BE035D006B0283
S214403EE0BE0386029C039C039C039C039C039C038A
S214403EF09C039C039C03BE03BE03BE03BE03BE03DB
S214403F00BE03BE03BE03BE03BE0337035703BE0352
S214403F105703BE03BE03BE03BE039703BE03BE03E2
S214403F20AC03BE03BE03BE03BE03BE035902BE03BC
S214403F30BE031E03BE03BE03BE03BE03BE03BE03D4
S214403F40BE03BE03BE03BE03C602DB0257035703CF
S214403F5057038B02DB02BE03BE039002BE039D02E4
S214403F60CC01B4020802BE03E101BE037E00BE03DC
S214403F70BE030D020D980F9340420D904BF0040B7C
S214403F809AF8003094E725AA0B990C9803F026F986
S214403F9040B9C84679E7279B23B10C980B9925AAC8
S214403FA003F01CF90B9B9B8913F0400F099B18BF2D
S214403FB04FF0FF330993099843B0BDE8F08F1BF0EC
S214403FC0200F119340F0DD810F9A1BF0100F13461F
S214403FD040F06C851BF0400F00F068851488043272
S214403FE0002501230F9200278DF877700A994A1C06
S214403FF000F065822BF08002079254EA050240F0FA
S2144040006482002940F03984002B40F0D4841BF0B1
S21440401001030E9300F0028642AE302306F8413D7F
S2144040200A9B0E9A9342B8BF1346089300231293F6
S21440403017B1089B01330893079B13F002031093B4
S21440404002D0089B02330893079B13F0840540F088
S2144040500D830D9B089AA3EB020BBBF1000F40F3B8
S2144040600583BBF1100F279C269A29DD434621463F
S214404070A84610270C9C0B9D06E0ABF1100BBBF13D
S214404080100F03F1080318DD0132B74826921031AD
S214404090072A279183E88100EFDD25AA2946204696
S2144040A003F09CF800287FF47DAFABF1100BBBF11A
S2144040B0100F2799269A4B46E6DC45460C4698460E
S2144040C00132A94B26925C44072A279488E80808C0
S2144040D000F395849DF8777008F1080877B1269B21
S2144040E0013301340DF177010122072B27942693E3
S2144040F088E8060000F3D88308F10808109B6BB1E7
S214404100269B013302341EA90222072B27942693AE
S21440411088E8060000F3D38308F10808802D00F0F5
S21440412013830A9B0E9A9F1A002F36DD102F269B6C
S2144041308E4D27DD42462146B0464FF0100B2E46A8
S2144041400C9C0B9D04E0103F102F02F1080215DD79
S21440415001331031072B2791269382E84008F2DD81
S21440416025AA2946204603F039F800287FF41AAFDE
S214404170103F102F2799269B4A46E9DC35460C46C9
S2144041804646904601333C44072B2794269388E8BE
S214404190A00000F37E8308F10808079BDF0500F1C6
S2144041A06782269B0E99C8F8006001330C44072BA3
S2144041B02794C8F80410269300F34A8308F10808A9
S2144041C0079B5B073AD50D9B089A9D1A002D35DD57
S2144041D0102D269B20DD10260C9FDDF82CB004E029
S2144041E0103D102D08F1080816DD01335E4A26936F
S2144041F01034072B279488E84400F1DD25AA594659
S214404200384602F0EBFF00287FF4CCAE103D102D70
S214404210279C269BC846E8DC0133534A26932C4409
S214404220072B279488E8240008DD25AA0B990C98CC
S21440423002F0D4FF00287FF4B5AE279C099B0D9A68
S21440424008998A42ACBF9B185B180993002C40F033
S2144042500A8300232693C846F9E511931BF02003F2
S21440426040F0E2811BF0100240F02C841BF040032B
S21440427000F028840F9913460A4604320C880F92A1
S2144042800025B0E60F9A1193166800248DF8774003
S214404290151D002E00F0A5860A9A531C00F00786CE
S2144042A02146304602F07CFA002800F0DF86831B69
S2144042B00E930A940F95CDF81CB023EAE373089347
S2144042C012949DF87770B3E69AF8003001222B21BD
S2144042D0EEE54BF0200B9AF80030E9E51193002A02
S2144042E040F08D87224B18931BF0200F40F0118131
S2144042F00F9A1BF0100F134640F0DF831BF0400F61
S21440430000F0DB83043314880F9300251BF0010F65
S21440431000F00C8154EA050300F0088130239DF834
S21440432044208DF878308DF879204BF0020B02232C
S21440433059E69AF8003000297FF4BAAD01222021D0
S214404340B6E54BF0010B9AF80030B1E50F9C2368B8
S2144043500D9318460028234603F10403FFF60AAEE1
S2144043600F939AF80030A3E568914000789140009A
S214404370489140004BF0100B1BF0200F11933FF478
S21440438023AE0F9D073525F0070303F10802D3E956
S21440439000450F92012326E69AF800302A2B0AF1B0
S2144043A0010400F01F87A3F130000928A24600F25E
S2144043B0AB8600231C461AF8013B04EB840400EB52
S2144043C04404A3F130000928F5D90A9472E54BF06D
S2144043D0800B9AF800306BE54BF0400B9AF80030B3
S2144043E066E59AF800306C2B03BF9AF801304BF024
S2144043F0200B0AF1010A4BF0100B59E5002A40F059
S21440440009871BF0200F40F0F7841BF0100F40F098
S214404410AA841BF0400F00F0A6840F9A136804325B
S2144044200F92BDF824201A8011E50F99B24B0C6804
S21440443018933022782304318DF8793011934BF05D
S214404440020B0F9100258DF878200223CBE50F99BB
S21440445011930A688DF8A02000230A461F468DF85F
S2144044607730043201230893CDF81CB00A97129790
S2144044700F920E9328AEDFE51193002A40F0E286B5
S2144044801BF0200F5DD11BF0100F40F006831BF091
S214404490400F00F002830F99B1F900400431E51750
S2144044A022462B460F91002A73F1000358DB0A99E7
S2144044B09DF877704A1C4FF001037FF49BAD54EA99
S2144044C0050200F0DC81CDF81CB0012B00F07882AC
S2144044D0022B40F0038218984E46230904F00F0141
S2144044E043EA05732A091C461546435C06F8013D17
S2144044F054EA0503F1D1A9EB06030E9390E5119318
S214404500002A40F09B867D4B18931BF0200F3FF40B
S214404510EFAE0F9D073525F0070303F108021BF0A9
S214404520010F0F92D3E900457FF4F4AE02235AE51B
S2144045301193002A40F07E864BF0100B1BF0200FA4
S214404540A1D00F9D073525F00705D5E90023002AA1
S21440455005F108011D4673F100030F911446A6DAD3
S2144045602D27644265EB45058DF8777001233DE5C0
S2144045701193002A40F05A860F9D073525F0070311
S21440458003F108020F921A6814925B681593159B04
S214404590149D23F00044284621464FF0FF32584BE6
S2144045A003F0D2FE002840F04883284621464FF0CC
S2144045B0FF32534B03F0AAFE002840F03E8314A877
S2144045C00FC803F099FE002840F02F859DF87770BD
S2144045D04C4E4D4B2BF08000079011980322002143
S2144045E008920A914728D8BF1E460E9212911FE5A0
S2144045F04BF0080B9AF800305AE4A3F13000002341
S2144046001C461AF8013B04EB840400EB4404A3F177
S21440461030000928F5D90D944CE44BF0100B11935B
S2144046201BF020033FF41EAE0F9D073525F0070311
S21440463003F10802D3E900450F920023D3E4119317
S214404640002A40F0E085119A002A3FF4A4AC0023EB
S21440465001211F4608918DF8A020CDF81CB08DF89A
S21440466077300A9312930E9128AEE5E4279C35E501
S214404670119B652B40F3A68014A80FC803F032FEAA
S214404680002800F04F81269B204AC8F800200133BE
S21440469001340122072B27942693C8F8042000F300
S2144046A06A8308F108081F9B139A279C934203DBF2
S2144046B0079BDD077FF584AD269B19991A9AC8F8A3
S2144046C0002001330C44072BC8F804102794269387
S2144046D000F39E8308F10808139B5E1E002E7FF7AA
S2144046E06FAD102E269B0A4D40F3F58122461027CB
S2144046F0DDF830B00B9C13E0489140003491400008
S214404700FFFFEF7F289140002491400064914000D5
S2144047107891400008F10808103E102E40F3DA81E8
S21440472001331032072B2792269388E8A000F1DD4C
S21440473025AA2146584602F051FD00287FF432ACA7
S214404740279A269BC846E7E70D9B089A9F1A002F94
S2144047507FF7E7AC102F269BB64D27DD4246214615
S214404760B0464FF0100B2E460C9C0B9D04E0103FBD
S214404770102F02F1080215DD01331031072B279167
S214404780269382E84008F2DD25AA2946204602F014
S21440479025FD00287FF406AC103F102F2799269B56
S2144047A04A46E9DC35460C464646904601333C448C
S2144047B0072B2794269388E8A00000F3328208F15E
S2144047C00808AEE4139B269F012B40F3FE81013779
S2144047D001340123072F27942697C8F80060C8F8AD
S2144047E0043000F3038208F10808199A1A9BC8F8A7
S2144047F0003001371444072F27942697C8F8042022
S21440480000F3008208F1080814A80FC803F06AFDF8
S214404810139B002840F00181013B013701361C44C0
S214404820072F26972794C8F80060C8F8043000F38E
S214404830288108F108081B9AC8F804200137144458
S21440484021AB072F27942697C8F800307FF7B6ACE1
S21440485025AA0B990C9802F0C1FC00287FF4A2AB65
S214404860279CC846ACE425AA0B990C9802F0B6FCE7
S21440487000283FF4EEACFFF795BBDDF81CB0012BEB
S21440488000F03581022B25D1CDF81CB00024002540
S21440489021E625AA0B990C9802F0A0FC00287FF48C
S2144048A081AB279CC84678E425AA0B990C9802F061
S2144048B095FC00287FF476AB279CC8461EE425AAC4
S2144048C00B990C9802F08AFC00287FF46BAB279C6F
S2144048D0C84623E4CDF81CB000240025494600E035
S2144048E03146E20842EA4572E80804F00703054606
S2144048F01446303354EA050201F8013C01F1FF3614
S214404900EED1079AD2077FF5F6AD302B3FF4F3ADE4
S2144049100239302306F8013CA9EB01030E930E46FC
S214404920FFF77EBB1F99002940F32F82129B139AF4
S2144049309342A8BF1346002B1F460DDD269BC8F8A2
S214404940006001333C44072B2794C8F80470269334
S21440495000F3208308F10808129B002FA8BFDB1B3A
S214404960002B1F4640F3D780102F269B314D40F337
S214404970EE8142462146B0464FF0100B2E460C9C28
S2144049800B9D04E00832103F102F40F3DC810133CA
S2144049901031072B2791269382E84008F2DD25AA9E
S2144049A02946204602F01AFC00287FF4FBAA2799E5
S2144049B0269B4A46E7E70A9B0E934E46FFF730BBD8
S2144049C0002D08BF0A2CC0F090804E46204629464F
S2144049D00A220023FEF78CFD303206F8012D2046D1
S2144049E0294600230A22FEF783FD04460D4654EA74
S2144049F00503EBD1A9EB06030E93FFF711BB25AADF
S214404A000B990C9802F0EAFB00287FF4CBAA9DF89D
S214404A107770279CC846FFF761BB5E1E002E7FF767
S214404A200AAF102E034D23DD22464FF0100B0C9C90
S214404A3007E000BF78914000103E102E08F10808AD
S214404A4015DD01371032072F2792269788E8200871
S214404A50F2DD25AA0B99204602F0C0FB00287FF421
S214404A60A1AA103E102E279A269FC846E9DC144677
S214404A7001373444072F2794269788E860007FF74D
S214404A80D8AE25AA0B990C9802F0A8FB00287FF414
S214404A9089AA279C269FC846CDE60F9A14681346D7
S214404AA00433E5170F9322462B46FCE404321C6879
S214404AB00F9201230025FFF796BA1C6804330F9324
S214404AC0002523E40F990A4604320C680F9200250D
S214404AD0FFF789BA144601333444072B27942693AC
S214404AE088E860007FF76AABB2E6DDF81CB0CDF828
S214404AF01CB042AE3034012306F8414D0E93FFF70A
S214404B008FBA25AA0B990C9802F068FB00287FF410
S214404B1049AA279CC8461F9A139B9A4244DB079B88
S214404B20D90741D4139B12989A1A1D1A9542A8BFCA
S214404B301546002D0EDD2699C8F80450013106446E
S214404B402C440729C8F800602794269100F33B823E
S214404B5008F10808002DACBF561B1646002E7FF7FE
S214404B602FAB102E269BB04DB5DD22461027DDF824
S214404B7030B00B9C04E008F10808103E102EA9DD6A
S214404B8001331032072B2792269388E8A000F2DDE7
S214404B9025AA2146584602F021FB00287FF402AAA7
S214404BA0279A269BC846E8E7269B19981A99C8F87C
S214404BB0001001330444072B2794C8F804002693BA
S214404BC000F3F58108F10808ACE7079BDA073FF5E4
S214404BD0FEAD013701340123072F27942697C8F8E6
S214404BE00060C8F804307FF724AE4AE725AA0B9940
S214404BF00C9802F0F3FA00287FF4D4A9279C269F4D
S214404C00C846F2E525AA0B990C9802F0E7FA002868
S214404C107FF4C8A9279C269FC846F5E54E46FFF771
S214404C20FFB925AA0B990C9802F0D8FA00287FF411
S214404C30B9A9279CC846FFF774BA149C224620465A
S214404C40159C2346214603F07FFB002840F08682D1
S214404C500A9B0133119B23F020030E9300F0E28160
S214404C60472B00F01E814BF480730793159B1F1E45
S214404C70149B0893BBBF3B4603F1004700232D23FC
S214404C801093119B662B00F0BB81462B00F0DF8013
S214404C900E9B089A452B0CBF0A9B0A9D23A820A969
S214404CA008BF5D1C049003911FA802213B4602905A
S214404CB0019500910C9800F06FFB119B672B064600
S214404CC040F0E0811BF0010F00F046827419169AFE
S214404CD00898179B394603F005FB002840F065818D
S214404CE0239BA34206D230215A1C23921970239B41
S214404CF09C42F9D89B1B13930E9B472B00F0E980F0
S214404D00119B652B40F3CD81119B662B1F9B129305
S214404D1000F09E81139B129A1946914200F38A81B5
S214404D201BF0010F40F0138222EAE27308936723D8
S214404D300E921193109B002B40F0C4800A939DF86E
S214404D407770FFF775B935460C46464690460133B0
S214404D503C44072B2794269388E8A0003FF7D1AE23
S214404D6008F10808D7E60F9A136804320F92099A9A
S214404D701A60FFF76CB825AA0B990C9802F02EFA29
S214404D8000287FF40FA9C8468DE4269B274AC8F81A
S214404D900020013301340122072B27942693C8F8BC
S214404DA0042072DC08F1080829B9139B1BB9079B3D
S214404DB0D8077FF505AA269B19981A9AC8F80020A6
S214404DC0013302462244072B2792C8F80400269354
S214404DD000F38D8108F108080029C0F26581139917
S214404DE0C8F8006001338C18072B27942693C8F820
S214404DF004107FF7E3A92BE50F9A09991368CD179E
S214404E000846043229460F92C3E90001FFF71FB84F
S214404E1025AA0B990C9802F0E1F900287FF4C2A865
S214404E20279CC84658E400BF7891400064914000F3
S214404E3040210C9801F002FA0B9A1060106100288D
S214404E4000F0EC810B9A40235361FEF7F0BF23A895
S214404E5020A90A9C049003911FA803210290089A57
S214404E6001943B4600910C9800F096FA254606467B
S214404E70119B462B06EB05047FF429AF3378302B85
S214404E8000F072811F9D2C4421E725AA0B990C98AF
S214404E9002F0A4F900287FF485A81F99279CC846ED
S214404EA082E70A9B002B08BF01230A93DBE63046C5
S214404EB00A9402F025F90F950E90CDF81CB00346E3
S214404EC0FFF7FBB92D2700238DF877700A93FFF77D
S214404ED0B0B81F9B12931A46033304DB0A9B19464D
S214404EE09142BFF617AF119B023B11939DF8443099
S214404EF08DF88430129B013B002B1F93BDBF129B45
S214404F00C3F101032D222B22092B8DF8852040F377
S214404F1016810DF193042046AD4D00E0104685FB0A
S214404F200312D917C1EBA20101EB8102A3EB4202A7
S214404F303032092900F8012C0B4600F1FF32EDDC37
S214404F4030330238D9B2844202F8011C40F25F8105
S214404F500DF18600134601E013F8011B00F8011B13
S214404F60A342F9D101339B1A0DF18602134421AABC
S214404F709B1A139A1B93012A13440E9340F31381F2
S214404F800E9B199A13440E9323EAE3730893002367
S214404F901293CFE625AA0B990C9802F01FF9002829
S214404FA07FF400A8279CC846D6E42346A2E625AA56
S214404FB00B990C9802F012F900287EF4F3AF1F9A72
S214404FC0279CC846AEE525AA0B990C9802F006F930
S214404FD000287EF4E7AF1F9A139B279C9A1AC84670
S214404FE0B8E50A9B1296062B28BF06230A96374634
S214404FF008930F95CDF81CB00E93764EFFF718B871
S21440500023A820A90A9D049003911FA8032102907B
S214405010089A01953B4600910C9800F0BDF906466B
S21440502044192BE706230A931DE62D278DF8777043
S214405030FFF7CEBA199A139B1344129A0E93002A7E
S21440504040F3AA8023EAE37308936723119371E63B
S214405050002B40F3B2800A9A002A40F093801BF05F
S214405060010F40F08F8008930E9363E60A9B0893E7
S2144050700E930A900F95CDF81CB012909DF877705D
S214405080FEF7D6BF119B472B7FF420AE1BF0010FD7
S2144050907FF4EEAE239B9B1B13930E9B472B3FF454
S2144050A018AF1F9B129321E74F4210314A4D2FDA1B
S2144050B01024DDF830B004E008F10808103F102F47
S2144050C026DD01331032072B27922693C8F800506E
S2144050D0C8F80440F0DD25AA0B99584602F07EF841
S2144050E000287EF45FAF279A269BC846E6E725AAA7
S2144050F00B990C9802F072F800287EF453AF1F9973
S214405100279A269BC84667E600200A90FEF7D2BE3E
S21440511001333A44072B88E8A0002792269308F1EB
S21440512008087FF75CAE25AA0B990C9802F056F853
S21440513000287EF437AF279A269BC8464FE6303382
S21440514030228DF887308DF8862022AB0FE7129BF1
S214405150199A13440E9375E7239BCBE51F4E204BBD
S2144051609DF87770FFF736BA169A0898179B394617
S21440517003F0B8F800287FF485AEC5F101051F9509
S2144051802C44A4E5129B199A13440A9A1A4422EA1C
S214405190E2730E920893CDE5129B0E9AC3F101037B
S2144051A01A441346D6E71BF0010312937FF4E8AE89
S2144051B00E9B23EAE3730893BCE50A9B13B91BF0E6
S2144051C0010F02D0199B0133DFE701234BE700BFF5
S2144051D0676666665C91400078914000309140007A
S2144051E02C9140000F9D9AF80130286840EAE07004
S2144051F00A9028460430A2460F90FEF759BE8DF816
S2144052007710FFF76FB88DF87710FFF71CBA0DF1DF
S2144052108603ACE68DF87710FFF7F3B80C9A0C23AC
S21440522013604FF0FF330993FEF7C5BE8DF8771035
S214405230FFF7A2B98DF87710FFF77EB98DF8771093
S214405240FFF761B98DF87710FFF71AB9024B13B123
S214405250024800F005B8704700000000ED614000CD
S214405260002301461A46184602F036B802690B6912
S214405270934200F38D802DE9F04F03F1FF3801F1A2
S214405280140700F1140B57F828205BF828304FEA33
S214405290880483B00132B3FBF2F90BEB04030094AD
S2144052A007EB040A0193B9F1000F39D000252E46CA
S2144052B0BC46DE465CF8044BDEF80030A2B209FB82
S2144052C00255220C2C0C09FB0242ADB2751B96B25D
S2144052D0C6EB134615FA83F306EB23469BB243EA26
S2144052E00643E2454FEA12454EF8043B4FEA26464F
S2144052F0E0D2009B5BF8033093B9019C231F9B458B
S2144053000CD254F8043C4BB9A4F1080302E01A68E6
S214405310043B1AB99B4508F1FF38F8D3C0F8108013
S214405320044601F059FD00282EDB09F101095D46CF
S214405330002357F8041B28688AB29A1A0B0C12FAF4
S21440534080F2C3EB104303EB224392B242EA03429D
S214405350BA4545F8042B4FEA2343EAD25BF82820A7
S2144053600BEB880382B91A1F93450BD253F8042CD3
S21440537042B9083B02E01A68043B1AB99B4508F15B
S214405380FF38F8D3C4F81080484603B0BDE8F08F25
S21440539000207047000000002DE9F04F016C9BB0E4
S2144053A00446279E92469B4641B1426C4A60012382
S2144053B093408B6001F038FB00232364BBF1000F61
S2144053C05D4635DB002333609D4BAB4315D05046DE
S2144053D059460022002302F085FF804600282DD043
S2144053E0269A01231360289B002B00F0BD80954829
S2144053F0186001381BB0BDE8F08F269A42F20F7352
S2144054001360BAF1000F0DD1C5F3130555B9289BAB
S2144054108D48002BEED000F10803289A13601BB08D
S214405420BDE8F08F289B8948002BE3D0C31CF4E7E7
S21440543001232BF000453360AB46C5E718AA19ABED
S2144054400192009352465B46204601F065FD2B0DC7
S214405450814671D0CBF3130242F07F51189FCDF8AE
S21440546050805046A3F2FF3641F440110022784B5C
S21440547002F01CFB6CA3D3E9002302F0CBFC6CA328
S214405480D3E9002302F014FBCDE90201304602F0D6
S2144054905BFC69A3D3E9002302F0BCFC02460B4642
S2144054A0DDE9020102F004FBCDE9040102F062FFEF
S2144054B0002202900023DDE9040102F01DFF0028CF
S2144054C040F07381029D162D00F25D81614B03EB27
S2144054D0C503D3E9000152465B4602F02BFF002885
S2144054E000F0C5816B1E029300230E93BF1B7B1EEC
S2144054F0069300F1548100230893029B002BC0F2D0
S2144055004581069A0D9311461944002306910C9343
S214405510249B092B2AD8052B40F35B86043B249317
S2144055200025249B023B032B00F24286DFE813F063
S214405530D403C902DF036104189F199E3E4406F255
S2144055403243202B40F38E81C3F1400306F21240D3
S2144055509D402AFA00F0284302F0E6FB0123013E74
S214405560A1F1F871149381E73B4843E70021616459
S2144055702046259101F032FA4FF0FF330A93259AE0
S2144055800F9301230490206424920B93199B002BC5
S214405590C0F2D980029A0E2A00F3D5802D4B03EB39
S2144055A0C203D3E90023CDE90823259B002BC0F294
S2144055B0BA83DDE9085650462A463346594602F035
S2144055C053FD02F0D7FE804602F0BEFB2A46334625
S2144055D002F020FC0B4602465946504602F066FA58
S2144055E0049D08F130032B700A9B012B06460F469C
S2144055F005F1010568D00022184B02F00BFC002292
S214405600002306460F4602F06DFE002840F08880D4
S214405610CDF82C904FF0000ADFF840B00C94DDE94E
S214405620088928E0AFF3008061436F63A787D23FC5
S214405630B3C8608B288AC63FFB799F501344D33F3C
S2144056400000F07F659140008891400094914000B2
S2144056500000F83FC09140006491400000002440A4
S21440566002F0D8FB0022002306460F4602F03AFE20
S214405670002840F0C18342464B463046394602F049
S214405680F3FC02F077FE044602F05EFB42464B46D1
S21440569002F0C0FB02460B463046394602F006FA98
S2144056A004F1300E049E05F801EBA5EB060E0A9EAB
S2144056B0B645CDE9060152465B46D1D1A046DDF857
S2144056C02C900C9C06460F4632463B4630463946A2
S2144056D002F0EEF906460F4602460B46DDE90801A3
S2144056E002F00AFE48B932463B46DDE9080102F0C0
S2144056F0F9FDA8B118F0010F12D015F8018C049AE4
S2144057006B1E04E09A4200F0018413F8018DB8F154
S214405710390F03F10105F5D008F1010883F8008040
S2144057204946204601F080F90022029B2A70269ABC
S21440573001331360289B002B00F09E8304981D6065
S2144057401BB0BDE8F08F0B9A002A3ED0249A012A5F
S21440575040F311830A9B0C9A5F1EBA42C0F28F83B5
S214405760D71B0A9B002BC0F28B84089D0A9B089A85
S2144057701A440892069A01211A442046069201F0DD
S214405780EDF9064624E001230E93AFE6089A029B05
S214405790D21A5B420C93002308920D93B8E6C7F1E9
S2144057A00103089300230693A7E6029D284602F0CD
S2144057B0CBFA02460B46DDE9040102F093FD0028D1
S2144057C07FF480AE6B1E02937CE60C9F089D0B9E7A
S2144057D0002D0CDD069900290B4608DDA942089AE3
S2144057E0A8BF2B46D21AED1ACB1A089206930C9BEA
S2144057F0D3B10B9B002B00F0B782002F10DD314653
S2144058003A46204601F046FA4A46014606462046B3
S21440581001F0AEF949468046204601F005F9C146FA
S2144058200C9BDA1B40F0A1820121204601F096F93C
S2144058300D9B002B80461CDD01461A46204601F093
S21440584029FA249B012B804640F3548200230C9374
S214405850D8F8103008EB8303186901F02FF9C0F12F
S214405860200010E0C3F120050AFA05F074E60E9019
S2144058703CE6249B012B40F3878200230C930D9B30
S2144058800120002BE4D1069A104410F01F0000F0CF
S214405890A180C0F12003042B40F39E84089BC0F1F6
S2144058A01C00034408931346034405440693089B90
S2144058B0002B05DD49461A46204601F03BFA814654
S2144058C0069B002B05DD41461A46204601F032FA7B
