:020000040040BA
:1000000000020120D9134000D7134000D71340004D
:10001000D7134000D7134000D71340000000000062
:10002000000000000000000000000000D7134000A6
:10003000D713400000000000D7134000D713400042
:10004000D7134000D7134000D7134000D713400008
:10005000D7134000D7134000D71340000000000022
:10006000D7134000D71340000000000005054000F2
:100070001905400000000000D7134000D7134000CE
:100080000000000000000000D7134000D71340001C
:10009000D7134000D7134000D7134000651040002D
:1000A000D7134000D71340000000000000000000FC
:1000B00000000000D7134000D7134000D7134000C2
:1000C000D7134000D7134000D713400010B5054C9C
:1000D000237833B9044B13B10448AFF300800123F4
:1000E000237010BDBC09002000000000E476400031
:1000F0000C4B43B10C480D4910B5AFF300800C48D0
:10010000036823B910BD0A48036833B97047094B27
:10011000002BF7D0BDE810401847064B002BF5D058
:10012000184700BF00000000E4764000C00900202E
:10013000E47640000000000010B50E480E4B9847D2
:100140003E2100200D4B98470D4CA0470028FCD0C5
:100150000C4B98470C4A0D4B9A620D4CA047002857
:10016000FCD010200B4B98470B4B98470148024B93
:10017000984710BD000E27079515400091054000D7
:10018000E5054000F5054000013F132000040E4046
:10019000050640002D05400085144000C0F884107D
:1001A00053004FF40042B2FBF3F2013AC2F30D02E6
:1001B000C0F88C2070474264B1F1C05F39D013D8C9
:1001C000B1F1006F25D0B1F1805F0AD1036F134305
:1001D0000367436F416F0B4023EA020343674260AA
:1001E00070470029FBD17047B1F1205F20D009D8BA
:1001F000B1F1005FF3D1036F13430367436F134300
:100200004367ECE7B1F1405F12D0B1F1605F0FD00E
:10021000E5E710B4016F046FD34321401C46194039
:100220000167436F416F0B4023404367426010BC3E
:100230007047036F016F0B4023EA02030367436FAC
:1002400013434367CBE7416412F0010F14BF4166CB
:10025000016612F00A0F14BF0162416212F0020F30
:1002600007D112F0080F18BFC0F884104161016077
:100270007047C0F88010F9E710B4019C416444B99C
:10028000016643B1016542B941630161016010BC7F
:1002900070474166F5E74165F5E70163F5E712F060
:1002A000100F10D0C0F8B01012F0200F14BFC0F81B
:1002B000D410C0F8D01012F0400F14BFC0F8C01016
:1002C000C0F8C4107047C0F8B4107047016470479C
:1002D00041647047C06C7047806C704770B582B0E5
:1002E0000D46430903F5001303F207735C0201F0A6
:1002F000F043B3F1005F53D00AD8B3F1805F2DD043
:10030000B3F1C05F3BD0B3F1006F15D0002023E004
:10031000B3F1405F55D0B3F1605F52D0B3F1205FCD
:10032000F4D100F01F0101262A4606FA01F1204609
:100330002F4B984730460FE000F01F000126864003
:1003400032464FF0006120462A4B984715F0010FC6
:1003500014BF66662666012002B070BD00F01F0063
:100360000126864032464FF080512046214B984767
:1003700015F0010F14BF666626660120ECE700F059
:100380001F000126864032464FF0C0512046194BCF
:10039000984715F0010F14BF666626660120DBE75B
:1003A00000F01F000126864032464FF000512046E3
:1003B000104B984715F0010F14BF666626660120A2
:1003C000CAE705F0605200F01F01012605EA0603A6
:1003D0000093C5F38003B2F1605F14BF00220122D5
:1003E00006FA01F12046044CA0473046B4E700BFAE
:1003F00047024000B701400079024000D0F8503178
:1004000043F00103C0F850310122014B1A607047DC
:10041000B00A0020D0F8503123F00103C0F8503169
:100420000022014B1A607047B00A00202DE9F84302
:1004300081460F46124B984705464846114B984750
:10044000054013D0104C04F1600603E0B4420DD017
:1004500010345DB12068B842F8D161682942F5D006
:10046000E3689847636825EA0305EFE7074B1B68D5
:1004700023B1074B1B680BB148469847BDE8F8838A
:10048000D5024000D9024000D8090020B00A00205F
:100490004C0A0020F8B5184C2668062E29D84FF0D3
:1004A000000C6446154F04E00134E4B2A446A642B1
:1004B00009D3A64625017D598D42F5D107EB0415D8
:1004C0006D689542F0D10D4D4FEA0E1E05EB0E04FE
:1004D00045F80E106260A3600699E160013666453A
:1004E00004BF05490E6011461A46054B9847002087
:1004F000F8BD0120F8BD00BF480A0020D80900203F
:100500009F02400008B50B210148024B984708BDE7
:10051000000E0E402D04400008B50C210148024B8E
:10052000984708BD00100E402D044000174A136B79
:1005300023F0700318431063936E13F0080F0AD171
:100540004FF4006311498A6E12F0080F03D1013B8A
:10055000F9D1012070470D4A136B23F0030343F0D8
:1005600002031363936E13F0080F0AD14FF4006374
:1005700006498A6E12F0080F05D1013BF9D101201E
:100580007047002070470020704700BF00040E40F5
:10059000C8B9114A136A090289B223F45C1323F023
:1005A000030343F45C1343F001030B431362936EA4
:1005B00013F0010FFBD0084A136A43F09B7343F416
:1005C00080331362704704490B6A044A1A40044B93
:1005D00013430B62704700BF00040E40FCFFC8FECF
:1005E00002003701024B986E00F48030704700BF64
:1005F00000040E404FF00052014B9A62704700BF5A
:1006000000040E40024B986E00F00200704700BFDD
:1006100000040E4010B40A4C0023E362090201F406
:100620007C51D2B21143074B03EA00400143E1621F
:100630002246936E13F0040FFBD010BC704700BF2E
:1006400000040E400000FF0722281ED81F280CD8E7
:10065000114B9A6901238340934318D0012303FA75
:1006600000F00D4B18610020704720380A4BD3F87A
:1006700008210123834093430BD0012303FA00F0A8
:10068000054BC3F80001002070470120704700208F
:1006900070470020704700BF00040E4010B489016D
:1006A0004318022444504FF0FF319962196A5A608E
:1006B00010BC7047890105234350704700EB81113E
:1006C000CA61704700EB81114A62704700EB8111EB
:1006D000086A7047F0B486B002240194082402949A
:1006E00020240394802404940A9CE40B0594B0EB2A
:1006F000510F14D84C0CA04217D2012501AF57F866
:100700002540B1FBF4F4260C84420AD386420DD96D
:100710000135052DF3D1002006B0F0BC7047002054
:10072000FAE70020F8E70120F6E700252AB106A93C
:1007300001EB850151F8141C1160002BF3D01D60F2
:100740000120E9E72A4B994249D8A3F57A53994207
:100750002BD910B4274CA4FB0234A40B043C264B29
:100760000B449B00B2FBF3F2043AFF2C39D9002171
:1007700001316408FF2C0DD90729F9D113029BB26E
:10078000090401F4E0210B43E4B223430361002098
:1007900010BC7047FF2AF1D90629EFD80131520861
:1007A000FF2AEBD90629F9D9E8E74900B2FBF1F2B3
:1007B000043AFF2A11D9002301335208FF2A01D934
:1007C000072BF9D1110289B21B0403F4E0230B4378
:1007D000D2B21A430261002070470023F2E70120E1
:1007E0007047FF2A88BF0021D8D80021C6E700BF84
:1007F000801A0600F11976050012FD3F38B504464F
:100800000D464FF0FF338362036A80230360036B5E
:100810000823036020230360042303600A684968F7
:10082000054B9847012814BF002001206B7A012B4B
:1008300004BF4023236038BD450740000A4659B134
:1008400003780129C4BF417841EA0323022A04DD69
:10085000827842EA032300E0002318467047000034
:10086000F8B5CC68002C4FD00B4605468E680020AA
:1008700068604A68120202F4407242F48052097CB5
:10088000090401F4FE010A436A60E86059681846E9
:10089000224B9847E860012C0FD001232B600020E9
:1008A0002B6A13F4807F36D147F22F5147F230572D
:1008B0004FF0010E4FF0020C19E003232B600120D2
:1008C000EEE70A4670460CE008B9C5F800C013F020
:1008D000020FF6D070462B6B3370013C01363A465E
:1008E00064B12B6A13F4807F11D1511E8AB1012C9F
:1008F000EAD013F0020FEED10A46F1E72B6A13F0AB
:10090000010FFBD02B6A00E001242046F8BD05242E
:10091000FBE70924F9E70524F7E700BF3D0840009D
:1009200070B5CD68002D35D00B4604468E6800208A
:1009300060600A7C120402F4FE024968090201F4B4
:1009400040710A436260E06059681846154B984749
:10095000E060236A13F4807F06D005251BE05DB1BB
:10096000236A13F4807F18D113F0040FF7D0337883
:100970006363013D0136F2E7236A13F4807F0ED1F1
:1009800013F0040FF8D002232360236A13F0010F41
:10099000FBD000E00125284670BD0525FBE70525B5
:1009A000F9E700BF3D08400010B40B01934214D991
:1009B000C9004B0803EBC202B2FBF1F2D3085C1E84
:1009C0004FF6FE718C4201D9012017E0416841F4D5
:1009D000002141600CE0012010E0590801EBC20247
:1009E000B2FBF3F2D3085C1E4FF6FE718C42F2D8D4
:1009F000120402F4E0221A430262002010BC704785
:100A00000A4BC0F8E43000234360436283628823CA
:100A10000360242303604FF4807303604FF40023CA
:100A200003604FF400330360704700BF004153552B
:100A300070B505460C4616460F4B984700220F4BE3
:100A40001A60A4B13246216828460D4B98470246E9
:100A500078B96368A1680B4321690B43E1680B43D4
:100A600006490B6069680B436B60104670BD01223C
:100A7000FBE70122F9E700BF010A4000500A00200D
:100A8000A909400010B50446064B984740B90246F4
:100A9000636823F00F0343F002036360104610BD48
:100AA0000122FBE7310A4000402303607047102316
:100AB0000360704781607047C1607047436913F0FD
:100AC000020FFBD0C1F30801C16100207047000094
:100AD00070B50C46097839B10546044E2846B04732
:100AE00014F8011F0029F9D170BD00BFBD0A4000F4
:100AF0004FF40043436070470122014B1A60704776
:100B0000540A002030B583B00A4C0B4B00930123EC
:100B10004FF400420B212046084DA8474FF40062D5
:100B2000074B1A604FF400412046064B984703B02C
:100B300030BD00BF000E0E40F90A40009504400091
:100B400000E100E0CD02400000B585B013200E4B5F
:100B500098470E4B01930E4B029301A90D480E4B83
:100B600098470E4B4FF40022C3F88020BFF34F8FFD
:100B7000BFF36F8FC3F88021002183F813131A602D
:100B800005B05DF804FB00BF49064000000E2707D2
:100B9000801A060000800140FD07400000E100E0EF
:100BA00010B504460846134B9847D4F8503123F04B
:100BB0000103C4F85031D4F8583143F00803C4F8A5
:100BC0005831D4F8503123F03003C4F85031D4F800
:100BD000503143F02003C4F85031D4F8503123F49D
:100BE0000073C4F85031D4F8503123F48063C4F852
:100BF000503110BD4906400038B54FF06051142007
:100C0000214CA04771211020A04701210F20A047AF
:100C10001E4D29461820A04729461920A0472946DD
:100C20001A20A04729461B20A04729461C20A04780
:100C300029461D20A04729461E20A04729461F20DF
:100C4000A047012211460720114B9847114B9847A6
:100C5000114C4FF400412046104B98470022104B96
:100C60001A600B2120460F4B98470F4B23221A6422
:100C70004FF480721A601A46936813F4807FFBD099
:100C80000A4B984738BD00BFDD0240000100002834
:100C900015064000050B4000000E0E40D10240003A
:100CA000B80A0020A10B400000040E40490B400090
:100CB00038B50C4D0C4C2846A0470128FBD0094DF7
:100CC00000212846094CA04701212846A0470221BF
:100CD0002846A04704212846A0470548054B9847C9
:100CE00038BD00BF008001406D0E4000A90F4000DC
:100CF0006E5E880101000020F0B40020124B1860E5
:100D0000124B1860124C134D23460F4F01260FE073
:100D100060B102310D4B196004E000200A4B1860ED
:100D20000A4B1860F0BC7047D92AF1D0AB42F4D01E
:100D3000191B13F8012BFF2AF8D11A78D82AF3D1FE
:100D400039603046F2E700BFB40A0020BC0A002038
:100D5000C00A00200FCE002010B54FF400411E48FD
:100D60001E4B98471E4A1368002BFCD01A4C4FF4B8
:100D7000004120461B4B984720461B4B9847D4F810
:100D80006C3113B9D4F87C31D3B1134BD3F87C3127
:100D90003BB9114B154AC3F8782143F2D402C3F88A
:100DA0007C210D4AD2F8603113F0080FFAD00A48BE
:100DB0000F4B984700220A4B1A600E4B984710BD04
:100DC0000A4AC4F8682143F2D402C4F86C21012213
:100DD000C4F88821E5E700BF000E0E40CD024000B8
:100DE000540A0020D1024000FD034000C00A002048
:100DF00015044000F90C400008B5014B984708BDA8
:100E00006108400008B5014B984708BD2109400022
:100E10002DE9F04186B007464C1C0125114EDFF844
:100E2000488010E02178FF2918D08DF80430029511
:100E300030238DF814300495039201A93846B04749
:100E400008280CD00234224614F8013CFF2BE9D0CC
:100E5000FE2BEAD14AF26A70C047F3E7002006B0E1
:100E6000BDE8F081050E400001000020F0B593B010
:100E7000074601248DF8474000250C951095FF2367
:100E80008DF830300D940DF147030E930F943026FA
:100E90008DF840600DEB0601414B98470095019598
:100EA0008DF818600A238DF808300394CDF810D01F
:100EB000059402A938463B4DA8478DF82C600B23BA
:100EC0008DF81C30089401AB09930A9407A93846A1
:100ED000A847019B009A43EA0223C3F30723262B6A
:100EE00002D0012013B0F0BD0023019302931C2314
:100EF0008DF81C3008948DF82C6001AB09930A948E
:100F000007A93846A8471D238DF81C3008948DF892
:100F10002C6002AB09930A9407A93846A847019BA5
:100F20007F2B01D00120DDE7029BA22BFAD1002309
:100F300000930193029301238DF81C300893302213
:100F40008DF82C200A9301AB099307A93846154C5C
:100F5000A04712ABAD2243F8402D099307A93846AC
:100F60000F4B9847CDF824D007A93846A047029BDD
:100F7000009A9A4201D00120B4E701AB099307A976
:100F80003846074B9847CDF824D007A93846054B7B
:100F90009847019B0098C01A18BF0120A2E700BF24
:100FA000050E4000F90D400008B511292AD8DFE8E8
:100FB00001F02B092D0B0D0F11131517191B1D1FF8
:100FC00021232527144922E0144920E014491EE07A
:100FD00014491CE014491AE0144918E0144916E0B9
:100FE000144914E0144912E0144910E014490EE0C9
:100FF00014490CE014490AE0144908E0144906E0D9
:10100000144904E0012008BD134900E01349144BC2
:101010009847002008BD00BFD8724000E06740003C
:101020003068400084684000E8664000386740004F
:101030008C674000346D4000246E4000146F400007
:1010400004704000406C40004C6B4000586A400007
:10105000F4704000E8714000D8684000D466400059
:10106000110E400008B500210548064B984710F0C6
:10107000100F04D0044A13780133DBB2137008BD9B
:1010800000000140CD064000580A002030B585B070
:101090001720144B9847144D009502AB03AA29461C
:1010A0000120124CA047124C029A42F480420021C7
:1010B0002046104B9847039AB5FBF2F200212046D8
:1010C0000D4B98474FF400020C4B1A601022002180
:1010D00020460B4B9847002120460A4B984705B005
:1010E00030BD00BF49064000000E2707D50640006E
:1010F000000001409D064000BD06400000E100E008
:10110000C5064000B50640000122014B1A60704739
:10111000740A002030B587B04FF000610520194CEB
:10112000A0474FF000610620A0474FF00061082063
:10113000A0476C46144D0FCD0FC495E8030084E81A
:101140000300124D124B2B600E20124B9847124C8D
:101150002A6869462046114B98474FF0FF312046D8
:101160000F4B984720460F4B984720460E4B984709
:10117000012120460D4B98474FF480420C4B1A60DA
:1011800007B030BDDD024000EC724000680A00206C
:10119000000E27074906400000400240850A400033
:1011A000B90A4000A90A4000AF0A4000B50A400051
:1011B00000E100E030B583B00C200E4B98470E4C98
:1011C0000A224FF4806120460C4B98470C4B009349
:1011D00070234FF480620C2120460A4DA8474FF43B
:1011E0008052094B1A604FF480612046074B9847A4
:1011F00003B030BD4906400000100E409D01400084
:10120000A11340009504400000E100E0CD02400041
:1012100030B583B00B200E4B98470E4C0A224FF48A
:10122000800120460C4B98470C4B009370234FF4E1
:1012300080020B2120460A4DA8474FF40062094B5B
:101240001A604FF480012046074B984703B030BD29
:1012500049064000000E0E409D014000091140006B
:101260009504400000E100E0CD02400010B50C46BE
:1012700001460948094B98470022094B1A601A4653
:10128000084913689C4206D90B68012BF9D100224A
:10129000044B1A6010BD10BD00400240D10A40004E
:1012A000580A0020700A00202DE9F0418EB01D4B35
:1012B000984710B90EB0BDE8F0811B4B1B681B4A64
:1012C00012689B1A1A4C23603222002101A8194B84
:1012D00098472268184901A8184B9847142101A87B
:1012E000174B9847174A1368002BFCD00F4B1C680C
:1012F0000D4B1B689C420DD2134D2544DFF85480E2
:10130000124F094E15F8011F4046B84701343368A3
:10131000A342F7D80E490F480F4B98470F48104B80
:101320009847C7E7F90C4000BC0A0020B40A002027
:101330005C0A00204118400014734000DD18400092
:101340006D124000700A0020BF0A0020BD0A400054
:101350002873400000400240D10A40004A94050131
:101360000100002008B508490848094B984710B10A
:101370000122084B1A6008490448054B984710B1F0
:101380000122064B1A6008BD0473400010CE0020F5
:10139000D91B40006C0A00200C734000640A002036
:1013A00008B50122074B1A60074B984700230749ED
:1013B0001A46CA540133B3F57A7FFAD10022044B9E
:1013C0001A6008BD700A00206513400010CE00208E
:1013D000600A00207047FEE708B5214B214A9A4277
:1013E00028D9214B1E4A9A420CD2013B9B1A23F06A
:1013F0000303043313441B4951F8040B42F8040B54
:101400009A42F9D100BF194B194A9A420AD2013BBC
:101410009B1A23F0030304331344002142F8041BF6
:101420009A42FBD1134B144A9A60144B9847144BC1
:101430009847FEE70A4B0B4A9A42E3D20A4B084808
:10144000181A1146043A02440028DBD0C1F1040105
:1014500052F8040943F8040DCA42F9D1D2E700BF9B
:1014600000000020E4764000BC090020FCD10020F0
:10147000BC09002000ED00E000004000F117400032
:10148000411640003C4B1B6B03F00303032B0ED8AB
:10149000DFE803F0021C3838384B5B6913F0800F2B
:1014A00014BF4FF400424FF4FA42354B1A60324BEE
:1014B0001B6B03F07003702B55D02F4B1A6B304908
:1014C000C2F302120B68D3400B6070472A4B1B6AB1
:1014D00013F0807F03D02B4A294B1A60E7E72A4A92
:1014E000274B1A60244B1B6A03F07003102B05D0A6
:1014F000202BDCD1234A224B1A60D8E7234A204B09
:101500001A60D4E71C4B1B6A13F0807F18D01D4A69
:101510001B4B1A60184B1B6B03F00303022B164A7C
:1015200007BF916A926AD16AD26A1548C1F30A412B
:10153000036801FB0333D2B2B3FBF2F30360B6E7F7
:10154000114A0F4B1A600C4B1B6A03F07003102BEF
:1015500005D0202BDED10B4A094B1A60DAE70B4A83
:10156000074B1A60D6E7064A13680949A1FB031323
:101570005B081360704700BF00040E4010140E405B
:101580000C000020001BB70000093D0000127A008B
:10159000ABAAAAAA124B984211D9124B984213D95E
:1015A000114B984214D9114B984215D9104B9842BF
:1015B00094BF4FF004220F4A0F4B1A6070474FF050
:1015C00080620D4B1A6070470C4A0B4B1A607047D3
:1015D0000B4A094B1A6070470A4A074B1A6070475A
:1015E000FF2C3101FF596202FF869303FFB3C4044D
:1015F000FFE0F50500050004000A0E4000010004AC
:1016000000020004000300040A4B1B6853B1094B9D
:101610001B681A180849914208DB1046054A1060F9
:1016200018467047054A034B1A60F0E74FF0FF3049
:10163000704700BF780A0020FCFF01200002012053
:101640002DE9F84F494B984749484A4B98474A4B30
:1016500098474A4B98474A4B98474A4B98474A4BBA
:1016600098474A4C0125656349484A4B984725638A
:10167000494B9847494B984705214948494CA04751
:1016800005214948A04705214848A0470521484869
:10169000A04705214748A04705214748A047052105
:1016A0004648A04705214648A04705214548A04790
:1016B000364D454C01E0236873B9EB6B13F4804F52
:1016C000F9D002214148374B98473F4EDFF8D4907C
:1016D0002E4CDFF8188129E014213D48314B984702
:1016E0002B482C4B984700232360E6E7E36B13F469
:1016F000804F0FD10127BB46DFF894A0254DC4F8D9
:1017000034B05046A84727634046A847E36B13F41C
:10171000804FF4D005212F48C8472F4B1B6803B3D7
:101720002E481C4B984700222B4B1A603368002B25
:10173000DCD005212A48C8471548164B9847002396
:101740003360E36B13F4804FD0D13368002BF8D0B3
:1017500005212348C8470E480E4B984700233360A5
:10176000EFE7204B9847204B9847DFE739014000CF
:1017700050140E40F10A4000D51340008D10400077
:1017800015114000B51140001112400000100E402C
:1017900037140D0001000020F90B4000B10C40008F
:1017A000347340006D1240004C7340007073400071
:1017B00088734000A0734000B8734000D4734000A9
:1017C000E4734000EC734000740A0020047440008D
:1017D000F8734000247440006C0A002025CA82007F
:1017E00018744000590D4000A912400013654100D3
:1017F00070B50F4E0F4D761BB61018BF002405D0E4
:10180000013455F8043B9847A642F9D10A4E0B4DD6
:10181000761B05F051FFB61018BF002406D0013426
:1018200055F8043B9847A642F9D170BD70BD00BF82
:10183000C4764000C4764000CC764000C4764000B8
:1018400070B4860746D0541E002A41D0CAB203465F
:1018500002E014F1FF343BD303F8012B9D07F8D1CC
:10186000032C2ED9CDB245EA05250F2C45EA0545B6
:1018700019D903F110022646103E0F2E42F8105CD3
:1018800042F80C5C42F8085C42F8045C02F1100279
:10189000F2D8A4F1100222F00F0204F00F0410326B
:1018A000032C13440DD91E462246043A032A46F857
:1018B000045BFAD8221F22F003020432134404F01E
:1018C00003042CB1C9B21C4403F8011B9C42FBD198
:1018D00070BC704714460346C2E700BF0EB4F0B5B3
:1018E0009CB021AB0F4953F8042B019305466FF0D0
:1018F0000044086802954FF402774FF6FF7602A97C
:101900000695ADF8147004940794ADF8166000F0D5
:101910006FFA029B00221A701CB0BDE8F04003B0C1
:10192000704700BF100000202DE9F0414FF0010E7C
:10193000744600254FF0FF362B198B4200EB06074B
:101940000DD23F5D10F803C0BC452DD21D460124C9
:10195000A3EB060E2B198B4200EB0607F1D34FF0D9
:101960000108C2F800E0444600254FF0FF372B196C
:10197000994200EB070E0ED91EF804E010F803C0E0
:10198000F44518D91D460124A3EB07082B199942E9
:1019900000EB070EF0D80137701C874224BFC2F855
:1019A00000803846BDE8F0810CD04FF0010E2E4685
:1019B00074467544C0E70BD04FF001082F464446EB
:1019C0004544D4E7744512BF01341D460124B3E7F2
:1019D000444512BF01341D460124C8E72DE9F04FEC
:1019E000ADF2144D164605468B461046194603AA1D
:1019F0001C46FFF799FF03AB81460DF20C4243F8FA
:101A0000044F9342FBD14CB1631E721E04A812F81E
:101A1000011F40F8213013F1FF33F8D203994A46F1
:101A20003144304602F004FF00286FD109F1FF3342
:101A30000093F31882460193234680465446584645
:101A40009A4608EB0A073A1A0021284402F0A0FE41
:101A5000002856D1002F54D0EB1904AA13F8013CEA
:101A600052F823304BB124B1039A934201D2AAEB2E
:101A70000203984400243846E3E74C4523460AF124
:101A8000FF3E38BF4B46734513D208EB030216F8EE
:101A900003C0A85C84452A4406EB030106D02CE071
:101AA00011F801CF12F8010F844526D10133734597
:101AB000F6D34C45009980F08980009B08EB030227
:101AC000019BA85C1B7898422A447FD1019804F1BD
:101AD000FF3B06E010F801CD12F801EDF44503D10B
:101AE00019464B1E9B45F5D101348C4270D8039C9E
:101AF0003846A044AAEB0404A3E7C9F101029044CC
:101B0000B7E700200DF2144DBDE8F08FA4EB0903F8
:101B10004B4538BF4B46013309F1FF38039306EBC1
:101B2000080358464FF0000ACB4699460AEB0407D3
:101B30003A1A0021284402F02BFE0028E1D1002FA0
:101B4000DFD0EB1904AA13F8013C52F82330A3BBF1
:101B5000611E8B4515D20AEB0B0216F80B3015F8F7
:101B600002E09E452A4406EB0B005B4606D027E0C8
:101B700010F801CF12F801EFF44521D101338B4267
:101B8000F6D3B8F1FF3F11D00AEB080299F8001024
:101B9000AB5C99422A440FD14B4605E013F8010D86
:101BA00012F8011D884207D1B342F7D105EB0A00B4
:101BB0000DF2144DBDE8F08F039B9A443846B5E70B
:101BC000CBF1010292449A443846AFE749468BE78D
:101BD00005EB080096E700BF0278002A00F00181BB
:101BE0002DE9F04F91F8008085B04446B8F1000F20
:101BF00016D0864601F1010C012703E013F8014BD2
:101C00006CB19C46A24214BF002707F001071EF8E2
:101C1000012F6346002AF1D19CF80030FBB917B1BF
:101C200005B0BDE8F08F0E46054641460130ACEBED
:101C3000060403F0D7F9074688B1012CF0D0281923
:101C4000874294BFC11B01211F2C8B460BD9234611
:101C500032463846FFF7C2FE05B0BDE8F08F0020DF
:101C600005B0BDE8F08F03AA21463046FFF75CFEC1
:101C70000399804602463144304602F0D9FD0028DF
:101C800057D108F1FF330093F318814605460193BD
:101C90005846B2466619321A0021384402F078FDDF
:101CA0000028DCD1002EDAD0C845434638BF4B4669
:101CB0009C4212D95A191AF80310B85C81423A446E
:101CC0000AEB030E06D02CE01EF8010F12F8011FDC
:101CD000884226D101339C42F6D1C845009940F292
:101CE0008380009BEA18019BB85C1B7898423A44B9
:101CF0007AD1019809F1FF3B06E010F801CD12F806
:101D000001EDF44503D119464B1E5B45F5D109F1B0
:101D10000109894557D8039B30461D44A4EB0309AC
:101D2000B8E7C8F1010215441D444FF000093046E0
:101D3000B0E7A4EB0803434538BF4346013308F13D
:101D4000FF39039306EB090358460025BB469A4624
:101D500067193A1A0021584402F01AFD00287FF44E
:101D60007EAF002F3FF47BAF444515D908EB050249
:101D700016F808301BF8020098425A4406EB080196
:101D8000434606D023E011F801EF12F8010F864513
:101D90001DD101339C42F6D1B9F1FF3F12D005EBC2
:101DA00009029AF800301BF8021099425A4414D1E3
:101DB000534605E013F8010D12F8011D88420CD1BD
:101DC000B342F7D15F46781905B0BDE8F08FC8F18E
:101DD000010215441D443846BAE7039B38461D44AA
:101DE000B6E70B7813B97047414690E7002070477B
:101DF0002DE9F04FC3B00C460B9192460F930C9017
:101E000002F006FA03681A93184603F079F9A389D9
:101E10001990190603D52369002B01F001800023D6
:101E20000DF1C809139314931593279326931893D0
:101E30001B930993CDF89490C846169317939AF87C
:101E400000305446E3B1252B02D119E0252B03D0F5
:101E500014F8013F002BF9D1A4EB0A0585B1269BAC
:101E6000279AC8F800A001332A44072BC8F8045069
:101E7000279226937FDC08F10808099B2B440993DD
:101E80002378002B7FD000231A468DF8773019462F
:101E90000D939B464FF0FF3063780A9004F1010ADE
:101EA0000AF1010AA3F12000582800F2C083DFE8FC
:101EB00010F03802BE03BE034002BE03BE03BE03E1
:101EC000BE03BE03BE0345020302BE035D006B02F8
:101ED000BE0386029C039C039C039C039C039C03FF
:101EE0009C039C039C03BE03BE03BE03BE03BE0350
:101EF000BE03BE03BE03BE03BE0337035703BE03C8
:101F00005703BE03BE03BE03BE039703BE03BE0357
:101F1000AC03BE03BE03BE03BE03BE035902BE0331
:101F2000BE031E03BE03BE03BE03BE03BE03BE0349
:101F3000BE03BE03BE03BE03C602DB025703570344
:101F400057038B02DB02BE03BE039002BE039D0259
:101F5000CC01B4020802BE03E101BE037E00BE0351
:101F6000BE030D020D980F9340420D904BF0040BF1
:101F70009AF8003094E725AA0B990C9803F02EF9F3
:101F800040B9C84679E7279B23B10C980B9925AA3D
:101F900003F024F90B9B9B8913F0400F099B18BF9A
:101FA0004FF0FF330993099843B0BDE8F08F1BF061
:101FB000200F119340F0DD810F9A1BF0100F134694
:101FC00040F06C851BF0400F00F0688514880432E7
:101FD000002501230F9200278DF877700A994A1C7B
:101FE00000F065822BF08002079254EA050240F06F
:101FF0006482002940F03984002B40F0D4841BF027
:1020000001030E9300F0028642AE302306F8413DF4
:102010000A9B0E9A9342B8BF13460893002312936B
:1020200017B1089B01330893079B13F00203109329
:1020300002D0089B02330893079B13F0840540F0FD
:102040000D830D9B089AA3EB020BBBF1000F40F32D
:102050000583BBF1100F279C269A29DD43462146B4
:10206000A84610270C9C0B9D06E0ABF1100BBBF1B2
:10207000100F03F1080318DD0132B7482692103122
:10208000072A279183E88100EFDD25AA294620460B
:1020900003F0A4F800287FF47DAFABF1100BBBF187
:1020A000100F2799269A4B46E6DC45460C46984683
:1020B0000132A94B26925C44072A279488E8080835
:1020C00000F395849DF8777008F1080877B1269B96
:1020D000013301340DF177010122072B2794269358
:1020E00088E8060000F3D88308F10808109B6BB15C
:1020F000269B013302341EA90222072B2794269324
:1021000088E8060000F3D38308F10808802D00F06A
:1021100013830A9B0E9A9F1A002F36DD102F269BE1
:102120008E4D27DD42462146B0464FF0100B2E461D
:102130000C9C0B9D04E0103F102F02F1080215DDEE
:1021400001331031072B2791269382E84008F2DDF6
:1021500025AA2946204603F041F800287FF41AAF4B
:10216000103F102F2799269B4A46E9DC35460C463E
:102170004646904601333C44072B2794269388E833
:10218000A00000F37E8308F10808079BDF0500F13B
:102190006782269B0E99C8F8006001330C44072B18
:1021A0002794C8F80410269300F34A8308F108081E
:1021B000079B5B073AD50D9B089A9D1A002D35DDCC
:1021C000102D269B20DD10260C9FDDF82CB004E09E
:1021D000103D102D08F1080816DD01335E4A2693E4
:1021E0001034072B279488E84400F1DD25AA5946CE
:1021F000384602F0F3FF00287FF4CCAE103D102DDE
:10220000279C269BC846E8DC0133534A26932C447E
:10221000072B279488E8240008DD25AA0B990C9841
:1022200002F0DCFF00287FF4B5AE279C099B0D9AD5
:1022300008998A42ACBF9B185B180993002C40F0A8
:102240000A8300232693C846F9E511931BF0200367
:1022500040F0E2811BF0100240F02C841BF04003A0
:1022600000F028840F9913460A4604320C880F9216
:102270000025B0E60F9A1193166800248DF8774078
:10228000151D002E00F0A5860A9A531C00F0078643
:102290002146304602F07CFA002800F0DF86831BDE
:1022A0000E930A940F95CDF81CB023EAE3730893BC
:1022B00012949DF87770B3E69AF8003001222B2132
:1022C000EEE54BF0200B9AF80030E9E51193002A77
:1022D00040F08D87224B18931BF0200F40F01181A6
:1022E0000F9A1BF0100F134640F0DF831BF0400FD6
:1022F00000F0DB83043314880F9300251BF0010FDB
:1023000000F00C8154EA050300F0088130239DF8A9
:1023100044208DF878308DF879204BF0020B0223A1
:1023200059E69AF8003000297FF4BAAD0122202145
:10233000B6E54BF0010B9AF80030B1E50F9C23682D
:102340000D9318460028234603F10403FFF60AAE56
:102350000F939AF80030A3E5787440008874400029
:10236000587440004BF0100B1BF0200F11933FF4FA
:1023700023AE0F9D073525F0070303F10802D3E9CB
:1023800000450F92012326E69AF800302A2B0AF125
:10239000010400F01F87A3F130000928A24600F2D3
:1023A000AB8600231C461AF8013B04EB840400EBC7
:1023B0004404A3F130000928F5D90A9472E54BF0E2
:1023C000800B9AF800306BE54BF0400B9AF8003028
:1023D00066E59AF800306C2B03BF9AF801304BF099
:1023E000200B0AF1010A4BF0100B59E5002A40F0CE
:1023F00009871BF0200F40F0F7841BF0100F40F00E
:10240000AA841BF0400F00F0A6840F9A13680432D0
:102410000F92BDF824201A8011E50F99B24B0C6879
:1024200018933022782304318DF8793011934BF0D2
:10243000020B0F9100258DF878200223CBE50F9930
:1024400011930A688DF8A02000230A461F468DF8D4
:102450007730043201230893CDF81CB00A97129705
:102460000F920E9328AEDFE51193002A40F0E2862A
:102470001BF0200F5DD11BF0100F40F006831BF006
:10248000400F00F002830F99B1F900400431E517C5
:1024900022462B460F91002A73F1000358DB0A995C
:1024A0009DF877704A1C4FF001037FF49BAD54EA0E
:1024B000050200F0DC81CDF81CB0012B00F0788221
:1024C000022B40F0038218984E46230904F00F01B6
:1024D00043EA05732A091C461546435C06F8013D8C
:1024E00054EA0503F1D1A9EB06030E9390E511938D
:1024F000002A40F09B867D4B18931BF0200F3FF481
:10250000EFAE0F9D073525F0070303F108021BF01E
:10251000010F0F92D3E900457FF4F4AE02235AE590
:102520001193002A40F07E864BF0100B1BF0200F19
:10253000A1D00F9D073525F00705D5E90023002A16
:1025400005F108011D4673F100030F911446A6DA48
:102550002D27644265EB45058DF8777001233DE535
:102560001193002A40F05A860F9D073525F0070386
:1025700003F108020F921A6814925B681593159B79
:10258000149D23F00044284621464FF0FF32584B5B
:1025900003F0DAFE002840F04883284621464FF039
:1025A000FF32534B03F0B2FE002840F03E8314A8E4
:1025B0000FC803F0A1FE002840F02F859DF877702A
:1025C0004C4E4D4B2BF080000790119803220021B8
:1025D00008920A914728D8BF1E460E9212911FE515
:1025E0004BF0080B9AF800305AE4A3F130000023B6
:1025F0001C461AF8013B04EB840400EB4404A3F1ED
:1026000030000928F5D90D944CE44BF0100B1193D0
:102610001BF020033FF41EAE0F9D073525F0070386
:1026200003F10802D3E900450F920023D3E411938C
:10263000002A40F0E085119A002A3FF4A4AC002360
:1026400001211F4608918DF8A020CDF81CB08DF80F
:1026500077300A9312930E9128AEE5E4279C35E576
:10266000119B652B40F3A68014A80FC803F03AFE17
:10267000002800F04F81269B204AC8F80020013333
:1026800001340122072B27942693C8F8042000F375
:102690006A8308F108081F9B139A279C934203DB67
:1026A000079BDD077FF584AD269B19991A9AC8F818
:1026B000002001330C44072BC8F8041027942693FC
:1026C00000F39E8308F10808139B5E1E002E7FF71F
:1026D0006FAD102E269B0A4D40F3F5812246102740
:1026E000DDF830B00B9C13E0587440004474400097
:1026F000FFFFEF7F38744000347440007474400072
:102700008874400008F10808103E102E40F3DA816A
:1027100001331032072B2792269388E8A000F1DDC1
:1027200025AA2146584602F059FD00287FF432AC14
:10273000279A269BC846E7E70D9B089A9F1A002F09
:102740007FF7E7AC102F269BB64D27DD424621468A
:10275000B0464FF0100B2E460C9C0B9D04E0103F32
:10276000102F02F1080215DD01331031072B2791DC
:10277000269382E84008F2DD25AA2946204602F089
:102780002DFD00287FF406AC103F102F2799269BC3
:102790004A46E9DC35460C464646904601333C4401
:1027A000072B2794269388E8A00000F3328208F1D3
:1027B0000808AEE4139B269F012B40F3FE810137EE
:1027C00001340123072F27942697C8F80060C8F822
:1027D000043000F3038208F10808199A1A9BC8F81C
:1027E000003001371444072F27942697C8F8042097
:1027F00000F3008208F1080814A80FC803F072FD66
:10280000139B002840F00181013B013701361C4435
:10281000072F26972794C8F80060C8F8043000F303
:10282000288108F108081B9AC8F8042001371444CD
:1028300021AB072F27942697C8F800307FF7B6AC56
:1028400025AA0B990C9802F0C9FC00287FF4A2ABD2
:10285000279CC846ACE425AA0B990C9802F0BEFC54
:1028600000283FF4EEACFFF795BBDDF81CB0012B60
:1028700000F03581022B25D1CDF81CB000240025B5
:1028800021E625AA0B990C9802F0A8FC00287FF4F9
:1028900081AB279CC84678E425AA0B990C9802F0D6
:1028A0009DFC00287FF476AB279CC8461EE425AA31
:1028B0000B990C9802F092FC00287FF46BAB279CDC
:1028C000C84623E4CDF81CB000240025494600E0AA
:1028D0003146E20842EA4572E80804F0070305467B
:1028E0001446303354EA050201F8013C01F1FF3689
:1028F000EED1079AD2077FF5F6AD302B3FF4F3AD5A
:102900000239302306F8013CA9EB01030E930E4671
:10291000FFF77EBB1F99002940F32F82129B139A69
:102920009342A8BF1346002B1F460DDD269BC8F817
:10293000006001333C44072B2794C8F804702693A9
:1029400000F3208308F10808129B002FA8BFDB1BAF
:10295000002B1F4640F3D780102F269B314D40F3AC
:10296000EE8142462146B0464FF0100B2E460C9C9D
:102970000B9D04E00832103F102F40F3DC8101333F
:102980001031072B2791269382E84008F2DD25AA13
:102990002946204602F022FC00287FF4FBAA279952
:1029A000269B4A46E7E70A9B0E934E46FFF730BB4D
:1029B000002D08BF0A2CC0F090804E4620462946C4
:1029C0000A22002303F0FEFC303206F8012D2046D7
:1029D000294600230A2203F0F5FC04460D4654EA7A
:1029E0000503EBD1A9EB06030E93FFF711BB25AA54
:1029F0000B990C9802F0F2FB00287FF4CBAA9DF80B
:102A00007770279CC846FFF761BB5E1E002E7FF7DC
:102A10000AAF102E034D23DD22464FF0100B0C9C05
:102A200007E000BF88744000103E102E08F108082F
:102A300015DD01371032072F2792269788E82008E6
:102A4000F2DD25AA0B99204602F0C8FB00287FF48E
:102A5000A1AA103E102E279A269FC846E9DC1446EC
:102A600001373444072F2794269788E860007FF7C2
:102A7000D8AE25AA0B990C9802F0B0FB00287FF481
:102A800089AA279C269FC846CDE60F9A146813464C
:102A90000433E5170F9322462B46FCE404321C68EE
:102AA0000F9201230025FFF796BA1C6804330F9399
:102AB000002523E40F990A4604320C680F92002582
:102AC000FFF789BA144601333444072B2794269321
:102AD00088E860007FF76AABB2E6DDF81CB0CDF89D
:102AE0001CB042AE3034012306F8414D0E93FFF77F
:102AF0008FBA25AA0B990C9802F070FB00287FF47E
:102B000049AA279CC8461F9A139B9A4244DB079BFD
:102B1000D90741D4139B12989A1A1D1A9542A8BF3F
:102B20001546002D0EDD2699C8F8045001310644E3
:102B30002C440729C8F800602794269100F33B82B3
:102B400008F10808002DACBF561B1646002E7FF773
:102B50002FAB102E269BB04DB5DD22461027DDF899
:102B600030B00B9C04E008F10808103E102EA9DDDF
:102B700001331032072B2792269388E8A000F2DD5C
:102B800025AA2146584602F029FB00287FF402AA14
:102B9000279A269BC846E8E7269B19981A99C8F8F1
:102BA000001001330444072B2794C8F8040026932F
:102BB00000F3F58108F10808ACE7079BDA073FF559
:102BC000FEAD013701340123072F27942697C8F85B
:102BD0000060C8F804307FF724AE4AE725AA0B99B5
:102BE0000C9802F0FBFA00287FF4D4A9279C269FBA
:102BF000C846F2E525AA0B990C9802F0EFFA0028D6
:102C00007FF4C8A9279C269FC846F5E54E46FFF7E6
:102C1000FFB925AA0B990C9802F0E0FA00287FF47E
:102C2000B9A9279CC846FFF774BA149C22462046CF
:102C3000159C2346214603F087FB002840F086823E
:102C40000A9B0133119B23F020030E9300F0E281D5
:102C5000472B00F01E814BF480730793159B1F1EBA
:102C6000149B0893BBBF3B4603F1004700232D2371
:102C70001093119B662B00F0BB81462B00F0DF8088
:102C80000E9B089A452B0CBF0A9B0A9D23A820A9DE
:102C900008BF5D1C049003911FA802213B460290CF
:102CA000019500910C9800F06FFB119B672B064675
:102CB00040F0E0811BF0010F00F046827419169A73
:102CC0000898179B394603F00DFB002840F06581FA
:102CD000239BA34206D230215A1C23921970239BB6
:102CE0009C42F9D89B1B13930E9B472B00F0E98065
:102CF000119B652B40F3CD81119B662B1F9B12937B
:102D000000F09E81139B129A1946914200F38A812A
:102D10001BF0010F40F0138222EAE273089367234D
:102D20000E921193109B002B40F0C4800A939DF8E3
:102D30007770FFF775B935460C4646469046013325
:102D40003C44072B2794269388E8A0003FF7D1AE98
:102D500008F10808D7E60F9A136804320F92099A0F
:102D60001A60FFF76CB825AA0B990C9802F036FA96
:102D700000287FF40FA9C8468DE4269B274AC8F88F
:102D80000020013301340122072B27942693C8F831
:102D9000042072DC08F1080829B9139B1BB9079BB2
:102DA000D8077FF505AA269B19981A9AC8F800201B
:102DB000013302462244072B2792C8F804002693C9
:102DC00000F38D8108F108080029C0F2658113998C
:102DD000C8F8006001338C18072B27942693C8F895
:102DE00004107FF7E3A92BE50F9A09991368CD1713
:102DF0000846043229460F92C3E90001FFF71FB8C5
:102E000025AA0B990C9802F0E9F900287FF4C2A8D2
:102E1000279CC84658E400BF887440007474400082
:102E200040210C9801F002FA0B9A10601061002802
:102E300000F0EC810B9A40235361FEF7F0BF23A80A
:102E400020A90A9C049003911FA803210290089ACC
:102E500001943B4600910C9800F096FA25460646F0
:102E6000119B462B06EB05047FF429AF3378302BFA
:102E700000F072811F9D2C4421E725AA0B990C9824
:102E800002F0ACF900287FF485A81F99279CC8465A
:102E900082E70A9B002B08BF01230A93DBE630463A
:102EA0000A9402F02DF90F950E90CDF81CB0034650
:102EB000FFF7FBB92D2700238DF877700A93FFF7F2
:102EC000B0B81F9B12931A46033304DB0A9B1946C2
:102ED0009142BFF617AF119B023B11939DF844300E
:102EE0008DF88430129B013B002B1F93BDBF129BBA
:102EF000C3F101032D222B22092B8DF8852040F3ED
:102F000016810DF193042046AD4D00E0104685FB7F
:102F10000312D917C1EBA20101EB8102A3EB42021C
:102F20003032092900F8012C0B4600F1FF32EDDCAC
:102F300030330238D9B2844202F8011C40F25F817A
:102F40000DF18600134601E013F8011B00F8011B88
:102F5000A342F9D101339B1A0DF18602134421AA31
:102F60009B1A139A1B93012A13440E9340F3138167
:102F70000E9B199A13440E9323EAE37308930023DC
:102F80001293CFE625AA0B990C9802F027F9002896
:102F90007FF400A8279CC846D6E42346A2E625AACB
:102FA0000B990C9802F01AF900287EF4F3AF1F9ADF
:102FB000279CC846AEE525AA0B990C9802F00EF99D
:102FC00000287EF4E7AF1F9A139B279C9A1AC846E5
:102FD000B8E50A9B1296062B28BF06230A963746A9
:102FE00008930F95CDF81CB00E93764EFFF718B8E6
:102FF00023A820A90A9D049003911FA803210290F1
:10300000089A01953B4600910C9800F0BDF90646E0
:1030100044192BE706230A931DE62D278DF87770B8
:10302000FFF7CEBA199A139B1344129A0E93002AF3
:1030300040F3AA8023EAE37308936723119371E6B0
:10304000002B40F3B2800A9A002A40F093801BF0D4
:10305000010F40F08F8008930E9363E60A9B08935C
:103060000E930A900F95CDF81CB012909DF87770D2
:10307000FEF7D6BF119B472B7FF420AE1BF0010F4C
:103080007FF4EEAE239B9B1B13930E9B472B3FF4C9
:1030900018AF1F9B129321E74F4210314A4D2FDA90
:1030A0001024DDF830B004E008F10808103F102FBC
:1030B00026DD01331032072B27922693C8F80050E3
:1030C000C8F80440F0DD25AA0B99584602F086F8AE
:1030D00000287EF45FAF279A269BC846E6E725AA1C
:1030E0000B990C9802F07AF800287EF453AF1F99E0
:1030F000279A269BC84667E600200A90FEF7D2BEB4
:1031000001333A44072B88E8A0002792269308F160
:1031100008087FF75CAE25AA0B990C9802F05EF8C0
:1031200000287EF437AF279A269BC8464FE63033F7
:1031300030228DF887308DF8862022AB0FE7129B66
:10314000199A13440E9375E7239BCBE51F4E204B32
:103150009DF87770FFF736BA169A0898179B39468C
:1031600003F0C0F800287FF485AEC5F101051F9576
:103170002C44A4E5129B199A13440A9A1A4422EA91
:10318000E2730E920893CDE5129B0E9AC3F10103F0
:103190001A441346D6E71BF0010312937FF4E8AEFE
:1031A0000E9B23EAE3730893BCE50A9B13B91BF05B
:1031B000010F02D0199B0133DFE701234BE700BF6A
:1031C000676666666C744000887440004074400016
:1031D0003C7440000F9D9AF80130286840EAE07086
:1031E0000A9028460430A2460F90FEF759BE8DF88B
:1031F0007710FFF76FB88DF87710FFF71CBA0DF155
:103200008603ACE68DF87710FFF7F3B80C9A0C2321
:1032100013604FF0FF330993FEF7C5BE8DF87710AA
:10322000FFF7A2B98DF87710FFF77EB98DF8771008
:10323000FFF761B98DF87710FFF71AB9024B13B198
:10324000024800F005B8704700000000DD41400072
:10325000002301461A46184602F03EB802690B697F
:10326000934200F38D802DE9F04F03F1FF3801F117
:10327000140700F1140B57F828205BF828304FEAA8
:10328000880483B00132B3FBF2F90BEB0403009422
:1032900007EB040A0193B9F1000F39D000252E463F
:1032A000BC46DE465CF8044BDEF80030A2B209FBF7
:1032B0000255220C2C0C09FB0242ADB2751B96B2D2
:1032C000C6EB134615FA83F306EB23469BB243EA9B
:1032D0000643E2454FEA12454EF8043B4FEA2646C4
:1032E000E0D2009B5BF8033093B9019C231F9B4500
:1032F0000CD254F8043C4BB9A4F1080302E01A685C
:10330000043B1AB99B4508F1FF38F8D3C0F8108088
:10331000044601F059FD00282EDB09F101095D4644
:10332000002357F8041B28688AB29A1A0B0C12FA69
:1033300080F2C3EB104303EB224392B242EA034212
:10334000BA4545F8042B4FEA2343EAD25BF828201C
:103350000BEB880382B91A1F93450BD253F8042C48
:1033600042B9083B02E01A68043B1AB99B4508F1D0
:10337000FF38F8D3C4F81080484603B0BDE8F08F9A
:1033800000207047000000002DE9F04F016C9BB059
:103390000446279E92469B4641B1426C4A600123F7
:1033A00093408B6001F038FB00232364BBF1000FD6
:1033B0005D4635DB002333609D4BAB4315D0504653
:1033C00059460022002302F08DFF804600282DD0B0
:1033D000269A01231360289B002B00F0BD8095489E
:1033E000186001381BB0BDE8F08F269A42F20F73C7
:1033F0001360BAF1000F0DD1C5F3130555B9289B21
:103400008D48002BEED000F10803289A13601BB002
:10341000BDE8F08F289B8948002BE3D0C31CF4E75C
:1034200001232BF000453360AB46C5E718AA19AB62
:103430000192009352465B46204601F065FD2B0D3C
:10344000814671D0CBF3130242F07F51189FCDF823
:1034500050805046A3F2FF3641F440110022784BD1
:1034600002F024FB6CA3D3E9002302F0D3FC6CA38D
:10347000D3E9002302F01CFBCDE90201304602F043
:1034800063FC69A3D3E9002302F0C4FC02460B46A7
:10349000DDE9020102F00CFBCDE9040102F06AFF54
:1034A000002202900023DDE9040102F025FF00283C
:1034B00040F07381029D162D00F25D81614B03EB9C
:1034C000C503D3E9000152465B4602F033FF0028F2
:1034D00000F0C5816B1E029300230E93BF1B7B1E61
:1034E000069300F1548100230893029B002BC0F245
:1034F0004581069A0D9311461944002306910C93B9
:10350000249B092B2AD8052B40F35B86043B24938C
:103510000025249B023B032B00F24286DFE813F0D8
:10352000D403C902DF036104189F199E3E4406F2CA
:103530003243202B40F38E81C3F1400306F2124048
:103540009D402AFA00F0284302F0EEFB0123013EE1
:10355000A1F1F871149381E73B4843E700216164CE
:103560002046259101F032FA4FF0FF330A93259A55
:103570000F9301230490206424920B93199B002B3A
:10358000C0F2D980029A0E2A00F3D5802D4B03EBAE
:10359000C203D3E90023CDE90823259B002BC0F209
:1035A000BA83DDE9085650462A463346594602F0AA
:1035B0005BFD02F0DFFE804602F0C6FB2A46334682
:1035C00002F028FC0B4602465946504602F06EFABD
:1035D000049D08F130032B700A9B012B06460F4611
:1035E00005F1010568D00022184B02F013FC0022FF
:1035F000002306460F4602F075FE002840F0888042
:10360000CDF82C904FF0000ADFF840B00C94DDE9C3
:10361000088928E0AFF3008061436F63A787D23F3A
:10362000B3C8608B288AC63FFB799F501344D33FB1
:103630000000F07F7574400098744000A47440004E
:103640000000F83FD0744000747440000000244033
:1036500002F0E0FB0022002306460F4602F042FE85
:10366000002840F0C18342464B463046394602F0BE
:10367000FBFC02F07FFE044602F066FB42464B462E
:1036800002F0C8FB02460B463046394602F00EFAFD
:1036900004F1300E049E05F801EBA5EB060E0A9E20
:1036A000B645CDE9060152465B46D1D1A046DDF8CC
:1036B0002C900C9C06460F4632463B463046394617
:1036C00002F0F6F906460F4602460B46DDE9080110
:1036D00002F012FE48B932463B46DDE9080102F02D
:1036E00001FEA8B118F0010F12D015F8018C049A50
:1036F0006B1E04E09A4200F0018413F8018DB8F1CA
:10370000390F03F10105F5D008F1010883F80080B5
:103710004946204601F080F90022029B2A70269A31
:1037200001331360289B002B00F09E8304981D60DA
:103730001BB0BDE8F08F0B9A002A3ED0249A012AD4
:1037400040F311830A9B0C9A5F1EBA42C0F28F832A
:10375000D71B0A9B002BC0F28B84089D0A9B089AFA
:103760001A440892069A01211A442046069201F052
:10377000EDF9064624E001230E93AFE6089A029B7A
:10378000D21A5B420C93002308920D93B8E6C7F15E
:103790000103089300230693A7E6029D284602F042
:1037A000D3FA02460B46DDE9040102F09BFD002836
:1037B0007FF480AE6B1E02937CE60C9F089D0B9EEF
:1037C000002D0CDD069900290B4608DDA942089A58
:1037D000A8BF2B46D21AED1ACB1A089206930C9B5F
:1037E000D3B10B9B002B00F0B782002F10DD3146C8
:1037F0003A46204601F046FA4A4601460646204629
:1038000001F0AEF949468046204601F005F9C1466F
:103810000C9BDA1B40F0A1820121204601F096F9B1
:103820000D9B002B80461CDD01461A46204601F008
:1038300029FA249B012B804640F3548200230C93E9
:10384000D8F8103008EB8303186901F02FF9C0F1A4
:10385000200010E0C3F120050AFA05F074E60E908E
:103860003CE6249B012B40F3878200230C930D9BA5
:103870000120002BE4D1069A104410F01F0000F044
:10388000A180C0F12003042B40F39E84089BC0F16B
:103890001C00034408931346034405440693089B05
:1038A000002B05DD49461A46204601F03BFA8146C9
:1038B000069B002B05DD41461A46204601F032FAF0
:1038C00080460E9B002B40F086800A9B002B40F325
:1038D00066820B9B002B00F09880002D05DD3146A1
:1038E0002A46204601F01EFA06460C9B002B40F0AB
:1038F000378306960A9B049ADDF818B0013BD3186B
:103900000B930AF001030C931746C24651464846F2
:10391000FFF7A4FC31460546484601F055FA5A46E1
:103920000A905146204601F06BFAC268804605F1C4
:103930003003002A40F02B8201464846089301F0EC
:1039400043FA41460690204601F066F8069A089B25
:1039500032B9249921B90C9A002A00F0EF83249AF5
:103960000A990029C0F29F8205D1249919B90C99AE
:10397000002900F09882002A00F306830B9A3B701E
:1039800007F101089742454600F00C8349460023A1
:103990000A22204601F04AF85E45814631464FF042
:1039A00000034FF00A02204600F0EB8101F03EF8E0
:1039B0005946064600230A22204601F037F84746BA
:1039C0008346A3E71C20089B03440893069B0344FB
:1039D0000544069363E74146484601F0F5F900289F
:1039E000BFF673AF029F494600230A222046013FDB
:1039F000029701F01BF80B9B8146002B40F0B68329
:103A00000F9B002B40F3BF830A93DDF810B00A9F91
:103A10005D4602E001F00AF8814641464846FFF75C
:103A20001DFC00F1300A05F801ABA5EB0B03BB420E
:103A30004FF00A024FF0000349462046EADB049BA0
:103A40000A9A012AACBF9B1801331D464FF0000BA8
:103A500049460122204601F065F94146814601F0C0
:103A6000B3F9002840F33D8215F8012C04996B1E30
:103A700004E08B4200F0AE8113F8012D392A03F1E6
:103A80000105F6D001321A704146204600F0C4FF0D
:103A9000002E3FF43DAEBBF1000F05D0B34503D07F
:103AA0005946204600F0B8FF3146204600F0B4FFEA
:103AB0002EE600230B93029B259A13440F930133A8
:103AC000012B1F461E460A93B8BF01270021172F5E
:103AD00061640AD9012204235B0003F114008742C8
:103AE000114602F10102F7D26164204600F06EFF38
:103AF0000E2E049020643FF641AD002D3FF43EAD04
:103B000002990029CDE910AB40F30282B84B01F0D5
:103B10000F020D1103EBC203E906D3E9006740F180
:103B2000AE81B44B50465946D3E9082302F09CFAC3
:103B3000CDE9120105F00F054FF0030A8DB1DFF852
:103B4000B482EA0709D530463946D8E9002302F0A5
:103B500061F90AF1010A06460F466D1008F10808DE
:103B6000EFD13B463246DDE9120102F07DFA07460D
:103B700088460E9B43B100229F4B3846414602F0D7
:103B8000BBFB002840F08682504602F0DDF83A4642
:103B9000434602F03FF9994B002201F089FF0A9B4E
:103BA0000546A1F15076002B00F03E81029B159353
:103BB0000A9B12930B9B002B00F0FA81129A8C4BFC
:103BC0008F4903EBC20353E90223002002F04CFAB1
:103BD0002A46334601F06AFF82468B463846414604
:103BE00002F0C8FB054602F0AFF802460B46384625
:103BF000414601F05BFF30355FFA85F8049D0646CB
:103C00000F4685F8008002460B465046594601355E
:103C100002F090FB002854D132463B460020764902
:103C200001F044FF02460B465046594602F082FB23
:103C3000002840F07082129A012A00F01181129B34
:103C4000049ACDF84890134499460DE000206A4943
:103C500001F02CFF52465B4602F04EFB002840F07C
:103C600058824D4500F0FA80504659460022654B77
:103C700002F0D0F80022634B82468B46304639462C
:103C800002F0C8F80F46064602F074FB804602F0C8
:103C90005BF802460B463046394601F007FF08F153
:103CA00030085FFA88F852465B4605F8018B0646F5
:103CB0000F4602F021FB32463B460028C6D0DDF815
:103CC0004890159B029323E500230B93259B002B23
:103CD00040F3DC801F461E460F930A93F6E601234D
:103CE0000B93F3E7BAF1000F7FF4A8ADCBF3130306
:103CF000002B7FF4BAAD2BF000473F0D3F05002F9E
:103D000000F00D82089B01330893069B0133069354
:103D100001230C93ABE50A9B002B3FF742AC40F02C
:103D200021820022384BDDE9080102F073F8524687
:103D30005B4602F0F5FADDF828804646002841D0BF
:103D4000259B049DDB4302934146204600F064FE20
:103D5000002E3FF4DDACA7E60C9A4946204600F061
:103D600091FF814658E5149A002A00F0878103F2FA
:103D700033430C9F089DF2E4BAF1000F7FF475AD58
:103D8000B4E700F053FE474606468346BEE50146CB
:103D90002046069300F040FE0122069BE0E5249BAE
:103DA000022B7FF796AD0A9B002BC9D14146052215
:103DB000204600F03BFE01468046484601F004F8EC
:103DC0000028BDDD029A04993123013202920B7062
:103DD0004D1CB9E7029A01320292049A3123137002
:103DE00052E601230B9366E6DDF82C900C9C8FE4E1
:103DF000D0744000A87440000000F03F00001C4058
:103E00000000E03F0000244000001440504601F054
:103E10009BFF3A46434601F0FDFF0022C14B01F0F3
:103E200047FE0546A1F1507641460022BE4B38467A
:103E300001F03CFE2A46334682468B4602F07AFA6F
:103E40008046002840F010812A4606F10043504683
:103E5000594602F051FA18B1464671E7DDF848902C
:103E6000DDE910ABFFF78ABB0498FFF7BBBA0C9BE8
:103E70000D9A0C97FB1A1A440D92002769E4DDE9AC
:103E800010234FF0020ACDE9122357E60021012347
:103E900061642046259300F099FD259B04902064E1
:103EA0000A930F9329E6002AD046CDF818B09A4617
:103EB00011DD49460122204600F034FF414681468B
:103EC00000F082FF002840F34681BAF1390F00F07C
:103ED000068105F1310AB34687F800A07D1C069ED5
:103EE000D2E504D11AF0010F01D0BDE5154615F851
:103EF000013C302B05F1FF32F8D0C5E504993022A2
:103F00000A70029A15F8018C01320292FFF7FCBB8D
:103F100000F0BB80029B5D42844B05F00F0203EB77
:103F2000C203D3E90023DDE9100101F073FF2D1175
:103F30000746884600F02C817D4E4FF0020AEB07C1
:103F400009D538464146D6E9002301F063FF0AF15E
:103F5000010A074688466D1006F10806EFD108E60B
:103F60007168204600F032FD336902339A0005463D
:103F700006F10C010C3000F08BFC29460122204692
:103F800000F0D0FE0690B5E4392BCDF818B0D0463D
:103F900000F0A58003F1010AB34687F800A07D1C5C
:103FA000069E71E55A46D046B3469A4616464FE5F8
:103FB000129B5E4901EBC3012A46334651E90201D7
:103FC00001F028FFCDE916013846414602F0D2F94A
:103FD000054601F0B9FE0B4602464146384601F05F
:103FE00065FD129B0F4604993035012B0D70064676
:103FF00001F1010526D0129B049ADFF83CB1CDF8FF
:10400000489013444FF0000A994652465B463046AA
:10401000394601F0FFFE0F46064602F0ABF9804636
:1040200001F092FE08F1300802460B463046394650
:1040300001F03CFD05F8018B4D4506460F46E4D1E5
:10404000DDF848903B4B0022DDE9160101F030FD20
:1040500032463B4602F050F9002846D0159B0293A9
:1040600015F8018CFFF743BB4FF000084646A9E660
:10407000089B0A9A9D1A0023FFF771BB189B0C9F9F
:10408000089DC3F13603FFF76ABBDDE910784FF0F6
:10409000020A6EE50A9B002B3FF4B8AE0F9B002B83
:1040A0007FF7DEAE0022244B3846414601F0B2FED7
:1040B000074688460AF1010001F046FE3A464346AB
:1040C00001F0A8FE0022174B01F0F2FC029A0F9BB0
:1040D0001293013A0546A1F1507615926AE539220C
:1040E000B3463A70069E7D1CC0E4DDE9162300202D
:1040F000104901F0DBFC32463B4602F01BF908B9DF
:10410000AEE6154615F8013C302B05F1FF32F8D02C
:10411000D7E5DDF84890159B0293FFF7E8BA0C97B6
:10412000FFF7A5BB00001C4000001440D074400005
:10413000A87440000000E03F00002440392BCDF877
:1041400018B0D046DDF828B09A46C8D0BBF1000FB1
:104150003FF7BFAEBFE67FF4BEAE1AF0010F3FF4EB
:10416000BAAEB2E64FF000084646E9E53146002314
:104170000A22204600F05AFC0F9B002B06460ADD5F
:104180000A93FFF7AABB249B022B23DC0F9B3BE483
:104190004FF0020AEDE4249B022B1BDC0F9BEFE7A0
:1041A000002565642946204600F010FC4FF0FF33DF
:1041B0000A930F9301230490259520640B93FFF736
:1041C000DDB90125FFF7A5B93FF469ABC0F13C00AB
:1041D000FFF7F9BB0F9B0A93E5E500BF38B50A4C22
:1041E0000A4D641BA4100AD004F18043013B05EB87
:1041F0008305013C55F804399847002CF9D1BDE8F6
:10420000384003F063BA00BFDC764000D876400047
:10421000044A054B1268506B002808BF1846F0305E
:10422000704700BF10000020500800202DE9F04F1B
:1042300001F10B06162E83B0054640F29E8036F043
:10424000070600F1BD80B14200F2BA8000F0BAFB6F
:10425000B6F5FC7FC0F09382730A00F0B880042B9F
:1042600000F27981B30903F1390003F1380EC3007C
:10427000BF4F3B44A3F108015C68A14206D10CE0AA
:10428000002A80F2AA80E468A14206D0636823F085
:1042900003039A1B0F2AF3DD70463C69DFF8E4E262
:1042A000744500F0AB81636823F003039A1B0F2A67
:1042B00000F39081002AC7F814E0C7F810E080F2FC
:1042C0009D80B3F5007F80F06181DB0803F1010C74
:1042D00099107A6857F83C80C4F8088001238B4015
:1042E00007EBCC0113430839E1607B6047F83C40A1
:1042F000C8F80C408210012494409C4200F28B804C
:104300001C4206D120F0030064001C4200F10400AE
:10431000FAD007EBC009CC468046DCF80C309C454F
:1043200007D16DE1002A80F27B81DB689C4500F0BB
:104330006781596821F003018A1B0F2AF2DDD3F847
:104340000CC0D3F8088000939C19284646F001065B
:1043500042F001055E60C8F80CC0CCF808807C61B2
:104360003C61C4F80CE0C4F808E065605A5000F005
:104370002BFB009B03F108041EE0102920D800F05D
:1043800021FB102618230220794F3B44A3F1080299
:104390005C68944200F03D816368E168A66823F0A0
:1043A0000303234428465A68F16042F001028E60FC
:1043B0005A6000F009FB0834204603B0BDE8F08FD6
:1043C00000240C2320462B6003B0BDE8F08F402072
:1043D0004FF400734FF03F0E4AE72344E1685A68F8
:1043E000A66842F00102F16028468E605A6000F033
:1043F000EBFA0834204603B0BDE8F08F234428468A
:104400005A6842F001025A6000F0DEFA0834204691
:1044100003B0BDE8F08FBC68636823F00308B045C3
:1044200004D3A8EB06030F2B00F38580DFF8589127
:10443000504BD9F800201B680132334404EB080AC2
:1044400000F0558103F580530F3323F47F6B2BF07D
:104450000F0B5946284600F0B3FD411C024600F000
:10446000FC80824500F2F780434B1968594419607B
:1044700000F04D81D9F8000001301BBFA2EB0A0A01
:104480005144C9F80020196012F0070100F01581AD
:10449000C1F10800C1F580510244083102EB0B095B
:1044A000C9F30B09A1EB090949462846019300927B
:1044B00000F086FD431C9DE80C0000F04381801A4B
:1044C000484440F001001968BA604944BC42506059
:1044D000196017D0B8F10F0F40F2FB806068A8F1A7
:1044E0000C0222F0070204EB020E00F001004FF074
:1044F000050C10430F2A6060CEF804C0CEF808C047
:1045000000F217811D4BBC681A68914288BF196080
:104510001B4B1A689142626888BF196022F003023F
:104520009642A2EB060301D80F2B04DC284600F0CC
:104530004BFA002440E7A21943F0010346F00106BC
:1045400066602846BA60536000F03EFA08342046A0
:1045500003B0BDE8F08F142B71D9542B00F2A38067
:10456000330B03F16F0003F16E0EC30080E600BF52
:1045700040040020AC0A00207C0A0020A40A00208D
:10458000A80A002048040020480800205A0A042AEB
:104590005BD9142A00F2AE8002F15C01C9005B32E3
:1045A00007EB010C7958ACF1080C8C4500F08880C1
:1045B0004A6822F00302934273D289688C45F7D18E
:1045C000DCF80C207B68E260C4F808C09460CCF88A
:1045D0000C408FE6A11946F0010C42F00106C4F828
:1045E00004C0284679613961C1F80CE0C1F808E0DF
:1045F0004E60E25000F0E8F90834DDE67B6879E6C9
:1046000008F1010818F0030F0CF1080C7FF485AED7
:104610002DE0DC68A34208BF02303FF43EAEBBE6AB
:1046200019441C464A68DB6854F8086F42F00102DE
:104630004A602846F3609E6000F0C6F9BCE603F1CC
:104640005C0003F15B0EC30012E69A0902F1390126
:10465000C9003832A4E7BC4254D0BC68626822F07A
:1046600003025DE759F80839994540F0868010F05B
:10467000030F00F1FF30F5D17B6823EA04037B6070
:1046800064009C423FF6C7AE002C3FF4C4AE1C420F
:1046900040467FF43EAE64001C4200F10400FAD0B4
:1046A00037E68C468CE7B3F5AA7F15D8F30B03F1F8
:1046B000780003F1770EC300DAE54FF48051EDE6A0
:1046C0007B689210012101FA02F213437B6062467B
:1046D00079E70123536029E740F25452934222D8EC
:1046E000B30C03F17D0003F17C0EC300C0E503F1C0
:1046F000100BAEE6542A29D81A0B02F16F01C9003B
:104700006E324DE7204B196859441960B2E6CAF37E
:104710000B0000287FF4AEAE08EB0B03BA6843F041
:1047200001035360EEE67F204FF47E734FF07E0E60
:104730009EE504F108012846009300F09FFE009BCF
:104740001968DFE601204FF00009BCE6B2F5AA7F48
:1047500005D8DA0B02F17801C900773220E740F280
:1047600054518A4205D89A0C02F17D01C9007C326D
:1047700016E74FF47E717E2212E77B6880E7F0082F
:1047800006F1080300E600BF7C0A002000000000DC
:1047900001F0FF01102A2BDB10F0070F08D010F8F2
:1047A000013B013A8B422DD010F0070F42B3F6D1F6
:1047B000F0B441EA012141EA014122F007047FF00F
:1047C00000070023F0E80256083C85EA010586EA66
:1047D000010685FA47F5A3FA87F586FA47F6A5FAA2
:1047E00087F68EB9EED1F0BC01F0FF0102F00702AE
:1047F00032B110F8013B013A83EA010313B1F8D159
:104800000020704701387047002D06BF3546033839
:10481000073815F0010F07D1013015F4807F02BF72
:10482000013015F4C03F0130F0BC0138704700BFC3
:10483000032A70B422D940EA01039B0711D0037800
:104840000C78A3421DD10A44013105E010F8013F64
:1048500011F8014BA34214D19142F7D1002070BC52
:1048600070470D680668AE420C46034601F104012C
:1048700000F1040008D1043A032AF2D8002ADED15C
:10488000ECE7181B70BC704721461846D7E700BFFD
:10489000844641EA000313F003036DD1403A41D34B
:1048A00051F8043B40F8043B51F8043B40F8043B0A
:1048B00051F8043B40F8043B51F8043B40F8043BFA
:1048C00051F8043B40F8043B51F8043B40F8043BEA
:1048D00051F8043B40F8043B51F8043B40F8043BDA
:1048E00051F8043B40F8043B51F8043B40F8043BCA
:1048F00051F8043B40F8043B51F8043B40F8043BBA
:1049000051F8043B40F8043B51F8043B40F8043BA9
:1049100051F8043B40F8043B51F8043B40F8043B99
:10492000403ABDD2303211D351F8043B40F8043B39
:1049300051F8043B40F8043B51F8043B40F8043B79
:1049400051F8043B40F8043B103AEDD20C3205D349
:1049500051F8043B40F8043B043AF9D2043208D041
:10496000D2071CBF11F8013B00F8013B01D30B88B3
:1049700003806046704700BF082A13D38B078DD091
:1049800010F003038AD0C3F10403D21ADB071CBF63
:1049900011F8013B00F8013B80D331F8023B20F8CD
:1049A000023B7BE7043AD9D3013A11F8013B00F806
:1049B000013BF9D20B7803704B7843708B7883708E
:1049C00060467047704700BF704700BFC36C70B54A
:1049D00005460C464BB153F8240080B1026843F8F9
:1049E000242000230361C36070BD2122042100F054
:1049F000C5FCE86403460028EDD1002070BD01210C
:104A000001FA04F6721D2846920000F0B7FC002857
:104A1000F3D044608660E4E731B1C36C4A6853F870
:104A20002200086043F82210704700BFF0B50C69FF
:104A300083B00D46064601F1140E0027DEF8000093
:104A400081B202FB0133010C180C02FB01019BB285
:104A5000013703EB0143BC424EF8043B4FEA1143DC
:104A6000ECDC3BB1AA68944207DA05EB840201341E
:104A700053612C61284603B0F0BD69680193013190
:104A80003046FFF7A3FF2A69023205F10C01074601
:104A900092000C30FFF7FCFEF26C6968019B52F843
:104AA0002100286042F821503D46DEE7020C120446
:104AB0000346B2B90304102013F07F4F04BF1B025A
:104AC000083013F0704F04BF1B01043013F0404F47
:104AD00004BF9B000230002B02DB5B0003D42020CC
:104AE00070470020E8E70130704700BF036813F00B
:104AF0000702014607D0DA0721D4980721D49B0882
:104B00000B600220704798B298B1104613F0FF0F67
:104B100004BF1B0A08301A0704BF1B0904309A0798
:104B200004BF9B080230DA0707D45B0804D12020B9
:104B300070471B0C1020E9E701300B607047002024
:104B400070475B080B600120704700BF10B50C4632
:104B50000121FFF73BFF01224461026110BD00BF4C
:104B60002DE9F04F0C691569AC4283B08B461646AF
:104B700004DA2246B3462C460E461546DBF80830CA
:104B8000DBF8041004EB05089845C8BF0131FFF7B6
:104B90001DFF00F1140909EB880AD145009005D2E8
:104BA0004B46002143F8041B9A45FBD806F1140C30
:104BB0000CEB85030BF1140B9C450BEB840E4CD2D4
:104BC000CDF804A09A46DCF80050AFB2EFB1002156
:104BD0004D465E460C4656F8042B286893B281B2C7
:104BE00007FB0313120C010C234407FB021101EB1A
:104BF00013419BB243EA0143B64545F8043B4FEAF3
:104C00001144E8D82C60DCF800502D0C1DD0D9F8E8
:104C1000003048461C46594600220E88240C05FBED
:104C2000064422449BB243EA024340F8043B51F855
:104C3000043B04681B0CA6B205FB036303EB1243A1
:104C40008E454FEA1342E8D803600CF1040CE245AC
:104C500009F10409B7D8DDF804A0B8F1000F0BDDA5
:104C60005AF8043CAAF1040A1BB105E05AF8043DC5
:104C700013B9B8F10108F9D10098C0F8108003B059
:104C8000BDE8F08F12F003032DE9F041144607460A
:104C90002ED10D46A4101CD0BE6C96B3E3074FF086
:104CA000000806D4641014D03068A8B10646E307A3
:104CB000F8D5324629463846FFF752FFB5B16A6843
:104CC000FB6C641053F82210296043F8225005460B
:104CD000EAD12846BDE8F081324631463846FFF732
:104CE0003FFF3060C0F800800646E0E70546D9E7A0
:104CF0005A1E0B4D002355F82220FFF797FE05465C
:104D0000C8E701213846FFF761FE40F27121012218
:104D10000023416102610646B8640360BEE700BF3C
:104D2000987540002DE9F84391460A698B684FEA6F
:104D3000691404EB020808F101059D420E4607467E
:104D4000496804DD5B009D4201F10101FADC38464F
:104D5000FFF73CFE002C00F1140306DD03EB840298
:104D6000002143F8041B9A42FBD1346906F1140177
:104D700019F01F0901EB840E1DD0C9F1200C00228F
:104D80000C6804FA09F4144343F8044B51F8042B5B
:104D90008E4522FA0CF2F3D81A600AB108F1020526
:104DA000FB6C7268013D53F822100561316043F8D5
:104DB0002260BDE8F883043B51F8042B43F8042F2C
:104DC0008E45F9D8ECE700BF30B40B6905460069A1
:104DD000C01A0FD19B001435143119442B4401E043
:104DE0009D4207D253F8044D51F8042D9442F7D058
:104DF00002D3012030BC70474FF0FF30FAE700BF0C
:104E00002DE9F0410F690E4611697F1A002F904677
:104E100017D1890006F1140502F1140E6B187144C4
:104E200001E09D425CD253F8042D51F8044DA2429A
:104E3000F7D05ED233462C46464675469846012743
:104E400005E058DB06F1140508F114040027716829
:104E5000FFF7BCFDD8F810303669C76004EB830C4F
:104E6000A64605EB860700F1140400235EF8041B38
:104E700055F8048B8AB213FA88F3090C9A1AC1EB1D
:104E8000184303EB224392B242EA0342F44544F84A
:104E9000042B4FEA2343E9D8AF4217D9A446AE46C4
:104EA0005EF8042B13FA82F3191401EB12419BB242
:104EB00043EA014277454CF8042B4FEA2143EFD8EF
:104EC000ED432F4427F0030704373C44043C22B948
:104ED00054F8043D013E002BFAD00661BDE8F08194
:104EE0000021FFF773FD0122002302614361BDE849
:104EF000F0817446ABE7334606F1140402F1140561
:104F0000164601279846A2E72DE9F04182B001211B
:104F10001C46C3F30A571546089EFFF757FDC4F316
:104F2000130480460FB144F4801401941DB302A809
:104F300040F8085DFFF7DAFD002834D19DE80C0049
:104F4000C8F81420002B0CBF01210221C8F818302A
:104F5000C8F81010DFB908EB8103A0F232403060CE
:104F60001869FFF7A3FD099BC0EB4110186040468C
:104F700002B0BDE8F08101A8FFF7B8FD019BC8F8B9
:104F8000143001212030C8F81010002FE3D0099B05
:104F9000A7F233470744C0F1350037601860404638
:104FA00002B0BDE8F0819DE80A00C0F1200203FADA
:104FB00002F20A43C3400193C8F81420C2E700BFBD
:104FC00038B5074C0023054608462360FCF71CFB58
:104FD000431C00D038BD2368002BFBD02B6038BDAC
:104FE000F8D10020C9B2002941D08207F0B467D0BF
:104FF0000378002B68D0994237D0431C04E013F8A3
:10500000010B90B381422FD09A071C46F7D1256837
:1050100041EA012343EA034383EA0506A6F101308E
:10502000A5F1013220EA060022EA0502024312F04D
:10503000803F11D1204650F8046F83EA0607A7F19C
:105040000135A6F1013225EA070522EA06022A43C4
:1050500012F0803FEFD00446207818B905E014F82C
:10506000010F10B18142FAD12046F0BC704783078E
:1050700024D00378002BF9D0431C03E002780133DD
:10508000002AF3D099071846F8D11968A1F1013226
:1050900022EA010212F0803F08D153F8041FA1F167
:1050A000013222EA010212F0803FF6D01A78184647
:1050B00042B110F8013F002BFBD170470346E4E7F3
:1050C0000446A4E7184670471846CEE700000000E3
:1050D00000000000000000000000000000000000D0
:1050E00000000000000000000000000000000000C0
:1050F00000000000000000000000000000000000B0
:1051000090F800F06DE9024520F007016FF0000C07
:1051100010F0070491F820F040F049804FF00004AF
:105120006FF00700D1E9002391F840F000F108008A
:1051300082FA4CF2A4FA8CF283FA4CF3A2FA8CF3C2
:105140004BBBD1E9022382FA4CF200F10800A4FA29
:105150008CF283FA4CF3A2FA8CF3E3B9D1E904237D
:1051600082FA4CF200F10800A4FA8CF283FA4CF3B4
:10517000A2FA8CF37BB9D1E9062301F1200182FA6E
:105180004CF200F10800A4FA8CF283FA4CF3A2FA74
:105190008CF3002BC6D0002A04BF04301A4612BA82
:1051A000B2FA82F2FDE8024500EBD2007047D1E985
:1051B000002304F00305C4F100004FEAC50514F014
:1051C000040F91F840F00CFA05F562EA05021CBFE5
:1051D00063EA050362464FF00004A9E72DE9F04FAA
:1051E000936883B09046002B70D082460C461768B7
:1051F0008D68086842E0A38913F4906F2ED065692A
:10520000216905EB4505A0EB010B05EBD5750BF10D
:1052100001006D103044A8422A4684BF05462A4644
:105220005B0538D511465046FFF700F800283CD002
:105230005A4621690190FFF72BFBA289019B22F4BA
:10524000906242F08002A281A5EB0B0203EB0B00FF
:10525000656123612060A2603546B3465A464946DF
:1052600000F008FAD8F80830A2682068551B5844A6
:105270009E1BA5602060C8F808603EB37E683B4670
:105280000837002EFAD0AE42D3F80090AB46B2D227
:105290003546B346E2E7504600F050FA0346002890
:1052A000D2D12169504600F0E9F80C23CAF8003049
:1052B000A389002243F040034FF0FF30A381C8F8D8
:1052C0000820C8F8042003B0BDE8F08F0020C8F81B
:1052D000040003B0BDE8F08F2DE9F047254C2568A8
:1052E000D5F848410646884692469946C4B3606858
:1052F0001F2817DC431C76B104EB80050122C5F89A
:1053000088A0D4F8881182401143022EC4F8881175
:10531000C5F808911ED00230636044F82080002058
:10532000BDE8F087144B03B34FF4C870AFF30080AF
:105330000446D0B1D5F84831002780E88800C5F888
:10534000484138460123C4F88871C4F88C71002E96
:10535000E1D0D1E7D4F88C110A43C4F88C21DAE704
:1053600005F5A674C5F84841C1E74FF0FF30BDE828
:10537000F08700BF307440000000000010B502FB51
:1053800001F1FEF753FF0446D8B150F8042C22F087
:105390000302043A242A18D8132A14D900231B2AFA
:1053A0000360436016D9242A8360C36011BF00F1F3
:1053B00010020361436100F118020023136053607F
:1053C0009360204610BD0246F7E70021FCF738FA4B
:1053D000204610BD00F10802EFE700BFF8B5244FEA
:1053E0000C460646FFF7EEFABB685D68C4F57E61C1
:1053F0000F3125F00305294421F47F6121F00F01CD
:10540000A1F58054B4F5805F07DB00213046FFF73B
:10541000D7FDBB682B44984204D03046FFF7D4FA3E
:105420000020F8BD61423046FFF7CAFD01300DD0C3
:10543000104BBA6819682D1B45F001053046091B51
:1054400055601960FFF7C0FA0120F8BD0021304611
:10545000FFF7B6FDBA68831A0F2BDEDD064C05494F
:10546000246843F00103001B53600860D5E700BFC8
:10547000400400207C0A002048080020002944D075
:105480002DE9F0410D468046FFF79CFA55F8047C63
:10549000694927F00103A5F10804E2188E685068F5
:1054A000B24220F003005ED0FE0750600BD455F8E6
:1054B000087CE41B01F1080EA56875453B446DD0DE
:1054C000E768EF60BD6015186D68ED073ED543F0E5
:1054D00001026260E350B3F5007F17D2DB08581C6D
:1054E0009A104D6851F83070A7600123934001EB8A
:1054F000C0022B43083AE2604B6041F83040FC6048
:105500004046BDE8F041FFF75FBA70475A0A042AE7
:1055100052D89A0902F13907FF0002F13805C8197B
:10552000CA59083890424FD0516821F003018B428C
:1055300032D292689042F7D1C368A060E3609C6069
:10554000C4604046BDE8F041FFF73EBA95683B4F66
:10555000BD42034440D0D068E86043F0010285605A
:105560006260E350B7E7FF07034407D455F8082CFF
:10557000A41A1344A068E268C2609060304A1268BE
:1055800043F00100934260608C60B9D32D4B4046DC
:105590001968FFF723FFB3E71046CDE711184968F4
:1055A000C90744D49168D268CA60034443F001003B
:1055B00091606060E350A3E7142A16D802F15C07FB
:1055C000FF0002F15B05AAE7AA1001234D68934092
:1055D0002B434B600346B0E743F001024C610C6182
:1055E000E560A5606260E3508AE7542A06D81A0B8A
:1055F00002F16F07FF0002F16E0590E7B2F5AA7F96
:1056000006D8DA0B02F17807FF0002F1770586E78A
:1056100040F25450824206D89A0C02F17D07FF00F6
:1056200002F17C057BE74FF47E777E2577E743F038
:1056300001016160136063E740040020480400201A
:105640004C080020AC0A002082B049B15AB16BB1BD
:1056500013780B601278101C18BF012002B070473D
:1056600001A9002AF3D1104602B070476FF0010083
:10567000F4E700BF8842F0B50DD98B1898420AD2E2
:105680008418002A51D0224613F8014D02F8014D2A
:105690009942F9D1F0BD0F2A48D941EA00039B078E
:1056A00046D100F1100401F11003154653F8106CB7
:1056B00044F8106C53F80C6C44F80C6C53F8086CFC
:1056C00044F8086C103D53F8046C44F8046C0F2D3A
:1056D00003F1100304F11004E8D8A2F1100323F041
:1056E0000F0302F00F0E1033BEF1030F19440344F1
:1056F00021D91E1F0D467446043C55F8047B46F81C
:10570000047F032CF8D8AEF1040424F0030404341D
:105710002144234402F0030262B1013B0A4411F820
:10572000014B03F8014F8A42F9D1F0BD0346F3E77C
:105730000346F2E7F0BD7246EEE700BF002900F035
:1057400095802DE9F04F0D46164683B0804606F150
:105750000B07FFF737F955F804EC162F2EF003046A
:10576000A5F108093CD810221746BE423DD8944204
:1057700043DAC44B996809EB0400884200F0B48016
:10578000436823F0010101444968C9074CD51EF064
:10579000010F00F09B8031464046FEF747FD06466C
:1057A00000283AD055F8043C23F001034B44A0F103
:1057B00008029A4200F02181221F242A00F2078168
:1057C000132A00F2DB8003462A46116819605168EB
:1057D000596092689A6029464046FFF74FFE1CE0E8
:1057E00027F00707002F3A46BFDA00260C23304681
:1057F000C8F8003003B0BDE8F08F2E46E31B0F2B36
:105800001ED8D9F8043003F0010323434C44C9F8EF
:105810000430636843F0010363604046FFF7D4F847
:10582000304603B0BDE8F08F23F00303E118914246
:105830001FDBC36882682E46D3600C469A60DDE7A2
:10584000D9F8042009EB070102F001024C4443F0AF
:1058500001031743C9F804704B60636843F0010308
:10586000083163604046FFF709FED6E71146FEF7B0
:10587000DDBC1EF0010F8ED155F8081CA9EB010A02
:10588000DAF8041021F003010B442344934225DB92
:10589000C26881685646CA609160DAF80C1056F802
:1058A000080F221F242AC160886000F29480132A06
:1058B0006FD92968CAF808106968CAF80C101B2A41
:1058C00000F2A28008350AF1100263E055F8083CA6
:1058D000A9EB030ADAF8041021F0030163189342DC
:1058E000FFF659AF5646D8E7416821F0030BA344B1
:1058F00007F11000834556DA1EF0010F7FF44BAF1D
:1059000055F8081CA9EB010ADAF8041021F003018C
:105910008B445845E2DC5646DAF80C1056F8080F6E
:10592000221F242AC160886000F28F80132A40F26F
:105930008A802968CAF808106968CAF80C101B2AFE
:1059400000F28A8008350AF110022968116069683E
:105950005160A96891600AEB0701ABEB070242F0C6
:10596000010299604A60DAF8043003F001031F4332
:105970004046CAF80470FFF727F851E72B68036028
:105980006B6843601B2A2DD800F1080305F108025B
:105990001BE732462968116069685160A968916007
:1059A0001C46D1462AE709EB0701ABEB070B4BF08E
:1059B000010299604A6055F8043C03F001031F435B
:1059C000404645F8047CFEF7FFFF2E4628E72946AF
:1059D000FFF750FEFFE6294630461C46D146FFF74A
:1059E00049FE0BE7AB688360EB68C360242A17D0DD
:1059F00000F1100305F11002E7E650F8043C23F033
:105A000003031C442E46F9E6A968CAF81010E96899
:105A1000CAF81410242A0CD010350AF11802B9E77C
:105A20002B6903616B69436105F1180200F11803EA
:105A3000CBE62A69CAF818206A69CAF81C2018350A
:105A40000AF12002A6E732467FE729463046019355
:105A5000FFF710FE019B7EE7A968CAF81010E968FD
:105A6000CAF81410242A03D010350AF118026CE782
:105A70002A69CAF818206A69CAF81C2018350AF180
:105A8000200262E74004002021B1FF2A04D80A70F6
:105A900001207047084670478A2303604FF0FF30AB
:105AA000704700BF81F0004102E000BF83F0004377
:105AB00030B54FEA41044FEA430594EA050F08BFA9
:105AC00090EA020F1FBF54EA000C55EA020C7FEA6D
:105AD000645C7FEA655C00F0E2804FEA5454D4EBEA
